:020000040800F2
:1000000064290020B9030008B50200084D2D00083E
:10001000B9020008BB020008BD0200080000000091
:10002000000000000000000000000000C5230008E0
:10003000C102000800000000F1240008412500086A
:10004000C7020008C9020008CB020008CD02000860
:10005000CF020008D1020008D3020008D502000830
:10006000D7020008D9020008DB020008DD02000800
:10007000DF020008E1020008E3020008E5020008D0
:10008000E7020008E9020008EB020008ED020008A0
:10009000EF020008F1020008F3020008F502000870
:1000A000F7020008F9020008FB020008FD02000840
:1000B000FF0200080103000803030008050300080D
:1000C00007030008090300080B0300080D030008DC
:1000D0000F030008110300081303000815030008AC
:1000E0001703000819030008552D00081D03000818
:1000F0001F0300082103000823030008250300084C
:1001000027030008290300082B0300082D0300081B
:100110002F030008310300083303000835030008EB
:1001200037030008390300083B0300083D030008BB
:100130003F0300084103000843030008450300088B
:1001400047030008490300084B030008992D0008E5
:100150004F0300085103000853030008550300082B
:1001600057030008590300085B0300085D030008FB
:100170005F030008610300086303000865030008CB
:08018000670300086903000891
:100188002F49072291438D462E492F480A1A06D037
:100198000722914381F30988022282F314882B48AD
:1001A8002B492C4A00F039F82B482C492C4A00F0EE
:1001B80034F82C482C492D4A00F02FF82C482D49AA
:1001C8002D4A00F02AF82D482D492E4A00F025F82E
:1001D8002D482E492E4A00F020F82E482E4900229C
:1001E80000F026F82D482E49091A082903DB0022B9
:1001F8000260043001601F481F49884205D0026828
:10020800043003B4904703BCF7E700208646EC4669
:1002180000200021234A9047FEE7884207D0521A5F
:1002280005D0037801300B700131013AF9D17047DC
:10023800884202D002700130FAE770471A487047C6
:1002480064290020642900206429002060930008A4
:100258000000002060000020C8030008C803000850
:10026800088E0008609300080000002000000020AD
:10027800088E0008088E0008088E0008088E0008FE
:10028800088E0008088E0008088E0008088E0008EE
:100298006093000860000020E4270020E427002085
:1002A8006428002081040008FFFFFFFFFEE7FEE747
:1002B800FEE7FEE7FEE7FEE7FEE7FEE7FEE7FEE70E
:1002C800FEE7FEE7FEE7FEE7FEE7FEE7FEE7FEE7FE
:1002D800FEE7FEE7FEE7FEE7FEE7FEE7FEE7FEE7EE
:1002E800FEE7FEE7FEE7FEE7FEE7FEE7FEE7FEE7DE
:1002F800FEE7FEE7FEE7FEE7FEE7FEE7FEE7FEE7CE
:10030800FEE7FEE7FEE7FEE7FEE7FEE7FEE7FEE7BD
:10031800FEE7FEE7FEE7FEE7FEE7FEE7FEE7FEE7AD
:10032800FEE7FEE7FEE7FEE7FEE7FEE7FEE7FEE79D
:10033800FEE7FEE7FEE7FEE7FEE7FEE7FEE7FEE78D
:10034800FEE7FEE7FEE7FEE7FEE7FEE7FEE7FEE77D
:10035800FEE7FEE7FEE7FEE7FEE7FEE7FEE7FEE76D
:10036800FEE71448854602F035FA4EF68850CEF27C
:100378000000016851F47001016000BF00BF00BFB8
:10038800F1EE100A50F04070E1EE100A4FF0000054
:1003980080F314884EF63C71CEF20001086850F0E4
:1003A80040700860044805490160FFF7E9BE7047DE
:1003B800FEE700000000022008ED00E00000000851
:1003C800B0B5E8B002AF07F10403186002F06CFEA4
:1003D80002F0D8FD4FF0000387F8973148F608601F
:1003E800C0F6000008F080FC07F5C67207F18C0320
:1003F8004FF49040C4F2000011461A4602F0D2FCB5
:100408000346002B2DD007F10C0318464FF00001CE
:100418004FF0800206F0A2FED7F88C31184606F09D
:100428003BF904460D46D7F89031184606F034F9E2
:1004380002460B4607F10C01CDE90023084648F6B1
:100448001C61C0F6000122462B4606F0E9FD07F1C3
:100458000C034FF48840C4F20000194602F0EEFE87
:10046800C2E74FF48840C4F2000048F62C61C0F699
:10047800000102F0E3FEB7E780B586B004AF4FF0A5
:100488000C037B6002F0A6F902F0E6F940F20C03D7
:10049800C2F200031A684DF68363C4F21B33A3FB50
:1004A80002134FEA934348F6D470C0F60000194689
:1004B80008F01AFC02F012FC02F076FB48F6FC7019
:1004C800C0F6000002F02EFC7B684FF003001946CE
:1004D8004FF0000200F0B2F9024642F2E073C2F2B5
:1004E80000031A6042F2E073C2F200031B68002B9B
:1004F80005D149F21800C0F6000002F013FC49F2D9
:100508006000C0F6000002F00DFC7B684FF00300AD
:1005180019464FF0000200F091F9024642F2D41356
:10052800C2F200031A6042F2D413C2F200031B683D
:10053800002B05D149F28000C0F6000002F0F2FB62
:1005480049F2C000C0F6000002F0ECFB7B684FF0F7
:10055800030019464FF0000200F070F9024642F21B
:10056800D813C2F200031A6042F2D813C2F2000391
:100578001B68002B05D149F2DC00C0F6000002F030
:10058800D1FB49F21C10C0F6000002F0CBFB4FF083
:10059800010300934FF0000301934FF0000302930F
:1005A8004FF00003039342F6A540C0F6000049F25D
:1005B8003411C0F600014FF080024FF0000300F044
:1005C80093FC4FF0010300934FF0000301934FF0A9
:1005D800000302934FF00003039340F2C930C0F6C2
:1005E800000049F23C11C0F600014FF480724FF050
:1005F800000300F079FC49F24810C0F6000008F04A
:1006080073FB00F087FDFEE780B483B000AF78602D
:100618007B6803F108027B685A607B684FF0FF3201
:100628009A607B6803F108027B68DA607B6803F1F3
:1006380008027B681A617B684FF000021A6007F1B4
:100648000C07BD4680BC704780B483B000AF7860AB
:100658007B684FF000021A6107F10C07BD4680BCA9
:10066800704700BF80B485B000AF786039607B68A0
:100678005B68FB60FB685A683B685A607B685A682D
:100688003B689A60FB685B683A689A60FB683A68FE
:100698005A607B683A685A603B687A681A617B6876
:1006A8001B6803F101027B681A6007F11407BD4655
:1006B80080BC704780B485B000AF786039603B6813
:1006C8001B68BB60BB68B3F1FF3F03D17B681B6944
:1006D800FB600DE07B6803F10803FB6002E0FB6848
:1006E8005B68FB60FB685B681A68BB689A42F6D96E
:1006F800FB685A683B685A603B685B683A689A606E
:100708003B68FA689A60FB683A685A603B687A689E
:100718001A617B681B6803F101027B681A6007F1A4
:100728001407BD4680BC704780B485B000AF7860C0
:100738007B685B687A6892689A607B689B687A686D
:1007480052685A607B681B69FB60FB685A687B6863
:100758009A4203D17B689A68FB685A607B684FF0BD
:1007680000021A61FB681B6803F1FF32FB681A601C
:10077800FB681B68184607F11407BD4680BC704724
:1007880080B582B000AF786039607B68002B02D1F9
:1007980001F09CFEFEE701F06DFE7B681A687B683D
:1007A800DB6B7968096C01FB03F3D2187B685A602C
:1007B8007B684FF000029A637B681A687B689A60CE
:1007C8007B681A687B68DB6B03F1FF337968096C17
:1007D80001FB03F3D2187B68DA607B684FF0FF32C5
:1007E8005A647B684FF0FF329A643B68002B0FD144
:1007F8007B681B69002B17D07B6803F11003184630
:1008080000F066FF0346012B0ED101F027FE0BE036
:100818007B6803F110031846FFF7F6FE7B6803F1C7
:1008280024031846FFF7F0FE01F036FE4FF00103EF
:10083800184607F10807BD4680BD00BF80B588B0DF
:1008480000AFF860B9601346FB714FF00003FB611D
:10085800FB68002B29D04FF04C0001F09FFEB861D7
:10086800BB69002B21D0FB68BA6802FB03F303F1D4
:1008780001037B61786901F091FE0246BB691A6049
:10088800BB691B68002B0DD0BB69FA68DA63BB69CA
:10089800BA681A64B8694FF00101FFF771FFBB69C4
:1008A800FB6102E0B86901F051FFFB69002B02D13E
:1008B80001F00CFEFEE7FB69184607F12007BD466C
:1008C80080BD00BF80B588B000AFF860B9607A60BD
:1008D8003B604FF00003FB61FB68002B02D101F085
:1008E800F5FDFEE7BB68002B03D1FB681B6C002BF2
:1008F80002D14FF0010301E04FF00003002B03D1B8
:1009080001F0E4FDFEE700BF01F0B4FDFB689A6B5F
:10091800FB68DB6B9A4218D2F868B9683A6800F04D
:10092800ADF9FB685B6A002B0AD0FB6803F124036E
:10093800184600F0CDFE0346012B01D101F08EFDD3
:1009480001F0AAFD4FF001035DE07B68002B04D1A4
:1009580001F0A2FD4FF0000355E0FB69002B07D121
:1009680007F11403184600F01BFF4FF00103FB6169
:1009780001F092FD00F012FC01F07CFDFB685B6C5D
:10098800B3F1FF3F03D1FB684FF000025A64FB68E4
:100998009B6CB3F1FF3F03D1FB684FF000029A64F0
:1009A80001F07AFD07F1140207F104031046194615
:1009B80000F012FF0346002B1ED1F86800F04EFA33
:1009C8000346002B12D0FB6803F110027B68104627
:1009D800194600F00BFEF86800F0DAF900F0F0FBB9
:1009E8000346002B8FD101F039FD8CE7F86800F041
:1009F800CFF900F0E5FB86E7F86800F0C9F900F0E8
:100A0800DFFB4FF00003184607F12007BD4680BD05
:100A180080B586B000AFF860B9607A603B60FB686B
:100A2800002B02D101F052FDFEE7BB68002B03D179
:100A3800FB681B6C002B02D14FF0010301E04FF063
:100A48000003002B02D101F041FDFEE701F03EFD5D
:100A58003861FB689A6BFB68DB6B9A4228D2F868AE
:100A6800B9683A6800F00AF9FB689B6CB3F1FF3F7C
:100A780014D1FB685B6A002B16D0FB6803F12403D2
:100A8800184600F025FE0346002B0DD07B68002B8E
:100A98000AD07B684FF001021A6005E0FB689B6C86
:100AA80003F10102FB689A644FF001037B6102E0E5
:100AB8004FF000037B61386901F012FD7B6918462D
:100AC80007F11807BD4680BD80B588B000AFF86053
:100AD800B9607A603B604FF00003FB61FB68002B54
:100AE80002D101F0F3FCFEE7BB68002B03D1FB68E1
:100AF8001B6C002B02D14FF0010301E04FF0000303
:100B0800002B03D101F0E2FCFEE700BF01F0B2FCCC
:100B1800FB689B6B002B3FD0FB68DB68BB61F86808
:100B2800B96800F00DF93B68002B1ED1FB689B6B80
:100B380003F1FF32FB689A63FB681B68002B04D142
:100B480001F030F80246FB685A60FB681B69002B0D
:100B58001DD0FB6803F11003184600F0B9FD0346E9
:100B6800012B14D101F07AFC11E0FB68BA69DA6054
:100B7800FB685B6A002B0AD0FB6803F12403184664
:100B880000F0A6FD0346002B01D001F067FC01F040
:100B980083FC4FF001036BE07B68002B04D101F06C
:100BA8007BFC4FF0000363E0FB69002B07D107F1E2
:100BB8001003184600F0F4FD4FF00103FB6101F04B
:100BC8006BFC00F0EBFA01F055FCFB685B6CB3F1D1
:100BD800FF3F03D1FB684FF000025A64FB689B6C2F
:100BE800B3F1FF3F03D1FB684FF000029A6401F0B4
:100BF80053FC07F1100207F104031046194600F0F0
:100C0800EBFD0346002B2CD1F86800F011F90346E0
:100C1800002B20D0FB681B68002B08D101F02AFCB0
:100C2800FB685B68184600F0F1FF01F035FCFB68D3
:100C380003F124027B681046194600F0D7FCF868D7
:100C480000F0A6F800F0BCFA0346002B7FF45DAF75
:100C580001F004FC59E7F86800F09AF800F0B0FADF
:100C680053E7F86800F094F800F0AAFA4FF0000390
:100C7800184607F12007BD4680BD00BF80B584B087
:100C880000AFF860B9607A60FB681B6C002B0DD16F
:100C9800FB681B68002B48D1FB685B68184601F0AD
:100CA80023F8FB684FF000025A603EE07B68002B97
:100CB8001AD1FB689A68FB681B6C1046B9681A461B
:100CC80006F028FAFB689A68FB681B6CD218FB6868
:100CD8009A60FB689A68FB685B689A4225D3FB6850
:100CE8001A68FB689A6020E0FB68DA68FB681B6C8E
:100CF8001046B9681A4606F00DFAFB68DA68FB6810
:100D08001B6CC3F10003D218FB68DA60FB68DA6871
:100D1800FB681B689A4208D2FB685A68FB681B6C20
:100D2800C3F10003D218FB68DA60FB689B6B03F120
:100D38000102FB689A6307F11007BD4680BD00BF3A
:100D480080B582B000AF786039607B681B68002B83
:100D580019D07B68DA687B681B6CD2187B68DA600C
:100D68007B68DA687B685B689A4203D37B681A6899
:100D78007B68DA607B68DA687B681B6C38681146C8
:100D88001A4606F0C7F907F10807BD4680BD00BF3F
:100D980080B582B000AF786001F06CFB14E07B682E
:100DA8005B6A002B15D07B6803F12403184600F01A
:100DB8008FFC0346002B01D000F06CFD7B689B6C18
:100DC80003F1FF327B689A647B689B6C002BE6DC3E
:100DD80000E000BF7B684FF0FF329A6401F05CFBD3
:100DE80001F048FB14E07B681B69002B15D07B6879
:100DF80003F11003184600F06BFC0346002B01D0EA
:100E080000F048FD7B685B6C03F1FF327B685A6435
:100E18007B685B6C002BE6DC00E000BF7B684FF072
:100E2800FF325A6401F038FB07F10807BD4680BD60
:100E380080B584B000AF786001F01CFB7B689B6BC9
:100E4800002B14BF00230123DBB2FB6001F024FB5D
:100E5800FB68184607F11007BD4680BD80B584B011
:100E680000AF786001F006FB7B689A6B7B68DB6BF0
:100E78009A4214BF00230123DBB2FB6001F00CFB94
:100E8800FB68184607F11007BD4680BD80B582B0E3
:100E980000AF7860396001F0EDFA7B685B6CB3F104
:100EA800FF3F03D17B684FF000025A647B689B6C5C
:100EB800B3F1FF3F03D17B684FF000029A6401F061
:100EC800EBFA7B689B6B002B06D17B6803F124034C
:100ED8001846396800F0CCFB7868FFF759FF07F12E
:100EE8000807BD4680BD00BF80B58AB002AFF86074
:100EF800B9603B601346FB80FB68002B02D101F010
:100F0800E5FAFEE7BB6A042B02D901F0DFFAFEE737
:100F1800FB881846396B00F0FDFDB861BB69002BF2
:100F280000F0AC80BB691A6BFB8803F1FF334FEA12
:100F38008303D3187B617B6923F007037B617B699B
:100F480003F00703002B02D001F0C0FAFEE7FB888C
:100F58000093B869B968BA6A7B6B00F0B9FC786924
:100F6800F9683A6801F0F2F90246BB691A60FB6A4F
:100F7800002B02D0FB6ABA691A6001F07BFA40F2D2
:100F88003813C2F200031B6803F1010240F2381360
:100F9800C2F200031A6040F26003C2F200031B6849
:100FA800002B0FD140F26003C2F20003BA691A6045
:100FB80040F23813C2F200031B68012B18D100F06D
:100FC800C3FC15E040F24813C2F200031B68002B73
:100FD8000ED140F26003C2F200031B68DA6ABB6AF2
:100FE8009A4205D840F26003C2F20003BA691A6057
:100FF800BB69DA6A40F24013C2F200031B689A42E6
:1010080006D9BB69DA6A40F24013C2F200031A60DB
:1010180040F25C13C2F200031B6803F1010240F2C4
:101028005C13C2F200031A60BB69DA6A40F2441327
:10103800C2F200031B689A4206D9BB69DA6A40F219
:101048004413C2F200031A60BB69DA6A13464FEA16
:1010580083039B184FEA830340F26402C2F2000242
:101068009A18BB6903F1040310461946FFF7FAFA08
:101078004FF00103FB6101F00FFA02E04FF0FF337C
:10108800FB61FB69012B11D140F24813C2F2000346
:101098001B68002B0AD040F26003C2F200031B68F1
:1010A800DA6ABB6A9A4201D201F0D8F9FB6918469C
:1010B80007F12007BD4680BD80B584B000AF7860D9
:1010C8004FF00003FB607B68002B19D000F066F836
:1010D80040F23C13C2F200031A687B68D318BB6065
:1010E80040F26003C2F200031B6803F104031846D0
:1010F800FFF71AFBB86800F0C7FC00F061F8F86069
:10110800FB68002B01D101F0A9F907F11007BD46D2
:1011180080BD00BF80B586B004AF4FF000030093D8
:101128004FF0000301934FF0000302934FF00003C8
:10113800039341F6B500C0F6000049F26411C0F609
:1011480000014FF480724FF00003FFF7CDFE786086
:101158007B68012B02D100F00FFE78607B68012BC1
:1011680011D101F0B3F940F24813C2F200034FF075
:1011780001021A6040F23C13C2F200034FF0000271
:101188001A6001F033F97B68002B02D101F09EF957
:10119800FEE707F10807BD4680BD00BF80B400AF79
:1011A80040F24C13C2F200031B6803F1010240F243
:1011B8004C13C2F200031A60BD4680BC704700BFE2
:1011C80090B583B000AF4FF000037B6040F24C1342
:1011D800C2F200031B68002B02D101F077F9FEE789
:1011E80001F048F940F24C13C2F200031B6803F106
:1011F800FF3240F24C13C2F200031A6040F24C1363
:10120800C2F200031B68002B40F0848040F23813C0
:10121800C2F200031B68002B7CD04FF000033B6038
:101228003BE040F2F803C2F20003DB68DC6804F13B
:1012380018031846FFF778FA04F104031846FFF775
:1012480073FAE26A40F24413C2F200031B689A423E
:1012580005D9E26A40F24413C2F200031A60E26A56
:1012680013464FEA83039B184FEA830340F2640254
:10127800C2F200029A1804F1040310461946FFF757
:10128800F1F9E26A40F26003C2F200031B68DB6A0C
:101298009A4202D34FF001033B6040F2F803C2F2D6
:1012A80000031B68002BBCD140F25013C2F20003AC
:1012B8001B68002B18D00DE000F048F840F25013DE
:1012C800C2F200031B6803F1FF3240F25013C2F26E
:1012D80000031A6040F25013C2F200031B68002B8F
:1012E800EAD14FF001033B603B68012B06D040F286
:1012F8005413C2F200031B68012B0BD14FF00103FA
:101308007B6040F25413C2F200034FF000021A60EF
:1013180001F0A4F801F0C0F87B68184607F10C0743
:10132800BD4690BD80B582B000AF01F0A3F840F291
:101338003C13C2F200031B687B6001F0ADF87B68C8
:10134800184607F10807BD4680BD00BF80B584B0C8
:1013580000AF40F24C13C2F200031B68002B40F0B0
:10136800CA8040F23C13C2F200031B6803F1010279
:1013780040F23C13C2F200031A6040F23C13C2F27E
:1013880000031B68002B4BD140F2F003C2F20003AC
:101398001B681B68002B02D001F098F8FEE740F2AA
:1013A800F003C2F200031B68FB6040F2F403C2F2D0
:1013B80000031A6840F2F003C2F200031A6040F218
:1013C800F403C2F20003FA681A6040F25813C2F23A
:1013D80000031B6803F1010240F25813C2F2000334
:1013E8001A6040F2F003C2F200031B681B68002B6E
:1013F80007D140F20003C2F200034FF0FF321A6037
:101408000EE040F2F003C2F200031B68DB68DB6801
:10141800BB60BB685A6840F20003C2F200031A605E
:1014280040F23C13C2F200031A6840F20003C2F211
:1014380000031B689A426AD340F2F003C2F2000329
:101448001B681B68002B07D140F20003C2F200039F
:101458004FF0FF321A605AE040F2F003C2F2000384
:101468001B68DB68DB68BB60BB685B687B6040F25D
:101478003C13C2F200031A687B689A4206D240F213
:101488000003C2F200037A681A6040E0BB6803F107
:1014980004031846FFF748F9BB689B6A002B05D080
:1014A800BB6803F118031846FFF73EF9BB68DA6A10
:1014B80040F24413C2F200031B689A4206D9BB6883
:1014C800DA6A40F24413C2F200031A60BB68DA6AAF
:1014D80013464FEA83039B184FEA830340F26402E2
:1014E800C2F200029A18BB6803F1040310461946B9
:1014F800FFF7B8F8A0E740F25013C2F200031B68E8
:1015080003F1010240F25013C2F200031A6007F11E
:101518001007BD4680BD00BF80B582B000AF40F265
:101528004C13C2F200031B68002B1DD040F2541369
:10153800C2F200034FF001021A6052E040F2441375
:10154800C2F200031B68002B02D100F0BFFFFEE7C8
:1015580040F24413C2F200031B6803F1FF3240F269
:101568004413C2F200031A6040F24413C2F20003AB
:10157800196840F26402C2F200020B464FEA830384
:101588005B184FEA8303D3181B68002BD6D040F2B0
:101598004413C2F200031A6813464FEA83039B18E8
:1015A8004FEA830340F26402C2F200029B187B6098
:1015B8007B685B685A687B685A607B685A687B6896
:1015C80003F108039A4204D17B685B685A687B6818
:1015D8005A607B685B68DA6840F26003C2F2000315
:1015E8001A6007F10807BD4680BD00BF80B584B00A
:1015F80000AF786039607B68002B02D100F066FF8D
:10160800FEE740F26003C2F200031B6803F118030F
:1016180078681946FFF74EF840F26003C2F20003FB
:101628001B6803F104031846FFF77EF83B68B3F123
:10163800FF3F0ED140F26003C2F200031B6803F1C2
:10164800040340F22410C2F200001946FFF70AF81A
:101658000AE040F23C13C2F200031A683B68D31850
:10166800FB60F86800F010FA07F11007BD4680BD6E
:1016780080B584B000AF786039607B68002B02D1F8
:1016880000F024FFFEE740F26003C2F200031B688B
:1016980003F1180378681946FEF7E4FF40F2600387
:1016A800C2F200031B6803F104031846FFF73CF875
:1016B80040F23C13C2F200031A683B68D318FB607F
:1016C800F86800F0E1F907F11007BD4680BD00BFDA
:1016D80080B584B000AF78607B68DB68DB68BB608E
:1016E800BB68002B02D100F0F1FEFEE7BB6803F1F6
:1016F80018031846FFF718F840F24C13C2F200031B
:101708001B68002B2AD1BB6803F104031846FFF7B6
:101718000BF8BB68DA6A40F24413C2F200031B6894
:101728009A4206D9BB68DA6A40F24413C2F200034F
:101738001A60BB68DA6A13464FEA83039B184FEABC
:10174800830340F26402C2F200029A18BB6803F1F4
:10175800040310461946FEF785FF09E0BB6803F14C
:10176800180340F2F800C2F200001946FEF77AFFAB
:10177800BB68DA6A40F26003C2F200031B68DB6AE6
:101788009A4203D34FF00103FB6002E04FF00003DD
:10179800FB60FB68184607F11007BD4680BD00BF17
:1017A80080B582B000AF78607B68002B02D100F072
:1017B8008DFEFEE740F25813C2F200031A687B68F8
:1017C8001A6040F23C13C2F200031A687B685A6040
:1017D80007F10807BD4680BD80B584B000AF7860CA
:1017E80039607B68002B02D100F070FEFEE73B6891
:1017F800002B02D100F06AFEFEE700F03BFE3B68DA
:101808001B68B3F1FF3F03D14FF00003FB6038E0E2
:101818007B681A6840F25813C2F200031B689A42A8
:101828000CD07B685A6840F23C13C2F200031B6874
:101838009A4203D84FF00103FB6022E040F23C13C8
:10184800C2F200031A687B685B68D21A3B681B689F
:101858009A4213D23B681A687B68596840F23C1375
:10186800C2F200031B68CB1AD2183B681A6078686A
:10187800FFF796FF4FF00003FB6002E04FF0010313
:10188800FB6000F009FEFB68184607F11007BD462B
:1018980080BD00BF80B400AF40F25413C2F2000311
:1018A8004FF001021A60BD4680BC704780B582B017
:1018B80000AF786000E000BF00F098F840F26403E1
:1018C800C2F200031B68012BF5D900F0C7FDF2E74F
:1018D80080B584B000AFF860B9607A603B60FB689F
:1018E80003F134031846B9684FF0100205F0C2FB43
:1018F800FB684FF0000283F843207B68042B02D971
:101908004FF004037B60FB687A68DA62FB687A68E8
:101918005A64FB6803F104031846FEF795FEFB685A
:1019280003F118031846FEF78FFEFB68FA681A6180
:101938007B68C3F10502FB689A61FB68FA685A6222
:1019480007F11007BD4680BD80B582B000AF4FF0EB
:1019580000037B6012E07A6813464FEA83039B1802
:101968004FEA830340F26402C2F200029B18184651
:10197800FEF74AFE7B6803F101037B607B68042B5A
:10198800E9D940F2C800C2F20000FEF73DFE40F27D
:10199800DC00C2F20000FEF737FE40F2F800C2F2A7
:1019A8000000FEF731FE40F20C10C2F20000FEF714
:1019B8002BFE40F22410C2F20000FEF725FE40F292
:1019C800F003C2F2000340F2C802C2F200021A6039
:1019D80040F2F403C2F2000340F2DC02C2F2000259
:1019E8001A6007F10807BD4680BD00BF80B582B008
:1019F80000AF3DE0FFF7D2FB40F20C13C2F2000348
:101A08001B68002B14BF00230123DBB27B60FFF7A8
:101A1800D7FB7B68002B2BD100F02CFD40F20C1378
:101A2800C2F20003DB68DB683B603B6803F1040338
:101A38001846FEF779FE40F23813C2F200031B681D
:101A480003F1FF3240F23813C2F200031A6040F289
:101A58002013C2F200031B6803F1FF3240F2201387
:101A6800C2F200031A6000F017FD386800F08AF827
:101A780040F22013C2F200031B68002BBAD107F111
:101A88000807BD4680BD00BF80B582B000AF786052
:101A980040F26003C2F200031B687A685A6040F2A1
:101AA8003C13C2F200031B687A689A4210D240F2D3
:101AB800F403C2F200031A6840F26003C2F20003A2
:101AC8001B6803F1040310461946FEF7F3FD1DE0F9
:101AD80040F2F003C2F200031A6840F26003C2F257
:101AE80000031B6803F1040310461946FEF7E2FDE4
:101AF80040F20003C2F200031B687A689A4205D2DA
:101B080040F20003C2F200037A681A6007F108077E
:101B1800BD4680BD80B584B000AF03463960FB8008
:101B28004FF0480000F03AFDF860FB68002B23D026
:101B38003B68002B07D1FB884FEA8303184600F067
:101B48002DFD034600E03B68FA681363FB681B6BD6
:101B5800002B06D1F86800F0F9FD4FF00003FB6098
:101B68000AE0FB681A6BFB884FEA830310464FF0C4
:101B7800A5011A4605F0F2FAFB68184607F11007A6
:101B8800BD4680BD80B582B000AF78607B681B6BB6
:101B9800184600F0DBFD786800F0D8FD07F108076B
:101BA800BD4680BD80B483B000AF40F26003C2F28E
:101BB80000031B687B607B68184607F10C07BD466D
:101BC80080BC704780B483B000AF40F24813C2F2C3
:101BD80000031B68002B03D14FF000037B600DE06E
:101BE80040F24C13C2F200031B68002B03D14FF0E4
:101BF80001037B6002E04FF002037B607B681846BC
:101C080007F10C07BD4680BC704700BF80B584B0A3
:101C180000AF78607B68FB607B68002B5FD0FB6857
:101C2800DA6A40F26003C2F200031B68DB6A9A4278
:101C380055D240F26003C2F200031B68DB6AC3F1AD
:101C48000502FB689A61FB685969FB68DA6A134602
:101C58004FEA83039B184FEA830340F26402C2F2FF
:101C680000029B18994232D1FB6803F1040318461D
:101C7800FEF75AFD40F26003C2F200031B68DA6AFD
:101C8800FB68DA62FB68DA6A40F24413C2F20003C6
:101C98001B689A4206D9FB68DA6A40F24413C2F21A
:101CA80000031A60FB68DA6A13464FEA83039B183D
:101CB8004FEA830340F26402C2F200029A18FB68FA
:101CC80003F1040310461946FEF7CCFC07E040F286
:101CD8006003C2F200031B68DA6AFB68DA6207F184
:101CE8001007BD4680BD00BF80B584B000AF7860E6
:101CF8007B68FB607B68002B39D0FB68DA6AFB687D
:101D08005B6C9A4233D0FB6803F104031846FEF774
:101D18000BFDFB685A6CFB68DA62FB68DB6AC3F18F
:101D28000502FB689A61FB68DA6A40F24413C2F262
:101D380000031B689A4206D9FB68DA6A40F244132A
:101D4800C2F200031A60FB68DA6A13464FEA83039B
:101D58009B184FEA830340F26402C2F200029A1809
:101D6800FB6803F1040310461946FEF77BFC07F1F4
:101D78001007BD4680BD00BF80B586B004AF4FF0E8
:101D880000037B6000F0A8FA40F29013C2F200034F
:101D98001B68002B1AD04FF0020300934FF000038A
:101DA80001934FF0000302934FF00003039341F6B1
:101DB8001570C0F6000049F26C11C0F600014FF42E
:101DC80000724FF00003FFF78FF878607B68002BF4
:101DD80002D100F07BFBFEE77B68184607F1080795
:101DE800BD4680BD80B588B000AFF860B9607A6044
:101DF8003B604FF00003FB6140F29013C2F2000316
:101E08001B68002B3DD0BB683B617B687B61FB682E
:101E1800BB613B68002B25D1FFF7D4FE0346012B9D
:101E28000FD140F29013C2F200031A6807F11003B1
:101E380010461946BA6A4FF00003FEF743FDF861F1
:101E48001FE040F29013C2F200031A6807F1100372
:101E5800104619464FF000024FF00003FEF732FD1E
:101E6800F8610EE040F29013C2F200031A6807F11D
:101E78001003104619463A684FF00003FEF7C8FDF4
:101E8800F861FB69184607F12007BD4680BD00BF11
:101E980080B586B002AF7860396040F28813C2F22C
:101EA80000031B68DB68DB68FB60FB6803F1040365
:101EB8001846FEF739FCFB68DB69012B1ED1FB686D
:101EC8009A697B68D318F86819463A687B6800F005
:101ED800BFF80346012B11D14FF000030093F868B7
:101EE8004FF000017A684FF00003FFF77BFFB860FE
:101EF800BB68002B02D100F0E9FAFEE7FB685B6AD9
:101F0800F868984707F11007BD4680BD80B584B0D2
:101F180000AF786007F10803184600F043F8F8604E
:101F2800BB68F868194600F003F800F0DBF8F1E741
:101F380080B584B000AF78603960FFF72FF907F1FA
:101F48000803184600F058F8F860BB68002B21D148
:101F58003B68002B0AD17A68FB689A4206D8FFF7DB
:101F68002FF97868F968FFF793FF17E040F29013AC
:101F7800C2F200031A687968FB68CB1A1046194642
:101F8800FEF784FFFFF71CF90346002B05D100F08C
:101F980065FA02E0FFF714F900E000BF07F1100747
:101FA800BD4680BD80B485B000AF786040F288132C
:101FB800C2F200031B681B68002B14BF0023012317
:101FC800DBB21A467B681A607B681B68002B08D155
:101FD80040F28813C2F200031B68DB681B68FB60D1
:101FE80002E04FF00003FB60FB68184607F1140796
:101FF800BD4680BC704700BF80B584B000AF786034
:10200800FFF790F9F86040F29413C2F200031B68DE
:10201800FA689A420CD240F29413C2F200031B6889
:10202800184600F0E5F87B684FF001021A6003E0FB
:102038007B684FF000021A6040F29413C2F200036A
:10204800FA681A60FB68184607F11007BD4680BD9C
:1020580080B586B000AFF860B9607A603B604FF039
:1020680000037B61FB68BA685A60FB68FA681A610A
:10207800BA687B689A4217D87A683B68D21AFB68B4
:102088009B699A4203D34FF001037B6124E040F23D
:102098008C13C2F200031A68FB6803F104031046AC
:1020A8001946FEF707FB17E07A683B689A4207D2A1
:1020B800BA683B689A4203D34FF001037B610BE097
:1020C80040F28813C2F200031A68FB6803F10403A4
:1020D80010461946FEF7EEFA7B69184607F118070D
:1020E800BD4680BD80B58AB002AF07F1040318462B
:1020F800FFF782FFF86164E03B69BB61BB69002BB5
:1021080009D0BB695B69002B05D0BB6903F10403E7
:102118001846FEF709FBBB68032B4FD801A252F8FB
:1021280023F000BF3D210008C521000893210008C5
:10213800BD210008FA68BB699B69D218FB68B869B9
:102148001146FA69FFF784FF0346012B38D1BB69B2
:102158005B6AB8699847BB69DB69012B30D1FA68BB
:10216800BB699B69D3184FF000020092B8694FF021
:1021780000011A464FF00003FFF734FE78617B69CF
:10218800002B1DD100F0A2F9FEE7FA68BB699A613D
:10219800BB699B69002B02D100F098F9FEE7BB6987
:1021A8009A69FB69D318B8691946FA69FB69FFF798
:1021B8004FFF06E0B86900F0C9FA02E000BF00E08E
:1021C80000BF40F29013C2F200031A6807F1080337
:1021D800104619464FF000024FF00003FEF774FC5A
:1021E8000346002B88D107F12007BD4680BD00BFFC
:1021F80080B58AB002AF78604BE040F28813C2F233
:1022080000031B68DB681B68FB6140F28813C2F29D
:1022180000031B68DB68DB68BB61BB6903F104036F
:102228001846FEF781FABB695B6AB8699847BB69CB
:10223800DB69012B2DD1BB699A69FB69D3187B61D6
:102248007A69FB699A4212D9BB697A695A60BB6993
:10225800BA691A6140F28813C2F200031A68BB69AE
:1022680003F1040310461946FEF724FA11E04FF073
:1022780000030093B8694FF00001FA694FF00003BA
:10228800FFF7B0FD38613B69002B02D100F01EF961
:10229800FEE740F28813C2F200031B681B68002B9C
:1022A800ABD140F28813C2F200031B68FB6040F216
:1022B8008C13C2F200031A6840F28813C2F20003BA
:1022C8001A6040F28C13C2F20003FA681A6007F130
:1022D8002007BD4680BD00BF80B500AF00F0CAF83A
:1022E80040F29013C2F200031B68002B2BD140F27E
:1022F8006010C2F20000FEF787F940F27410C2F2D3
:102308000000FEF781F940F28813C2F2000340F2A0
:102318006012C2F200021A6040F28C13C2F200038B
:1023280040F27412C2F200021A604FF00A004FF035
:102338000C014FF00002FEF781FA024640F29013BA
:10234800C2F200031A6000F0A7F880BD80B485B01F
:1023580000AFF860B9607A60FB68A3F10403FB6022
:10236800FB684FF080721A60FB68A3F10403FB60FE
:10237800BA68FB681A60FB68A3F10403FB60FB689A
:102388004FF000021A60FB68A3F11403FB607A683F
:10239800FB681A60FB68A3F10403FB60FB686FF03D
:1023A80002021A60FB68A3F12003FB60FB68184671
:1023B80007F11407BD4680BC704700BF054B19687C
:1023C8000868B0E8F04F80F309884FF0000080F308
:1023D800118870476000002003480068006880F397
:1023E800088862B600DF00BF08ED00E080B500AFE6
:1023F8004EF62053CEF200034EF62052CEF20002E3
:10240800126842F470021A604EF62053CEF20003AE
:102418004EF62052CEF20002126842F070421A6064
:1024280000F09CF840F20403C2F200034FF00002EF
:102438001A6000F0A9F84EF63473CEF200034EF697
:102448003472CEF20002126842F040421A60FFF77E
:10245800C3FF4FF00003184680BD00BF80B400AF33
:102468004EF60453CEF200034FF080521A60BD4678
:1024780080BC704780B500AF00F028F840F2040334
:10248800C2F200031B6803F1010240F20403C2F226
:1024980000031A6080BD00BF80B500AF40F204039E
:1024A800C2F200031B6803F1FF3240F20403C2F2D8
:1024B80000031A6040F20403C2F200031B68002BF9
:1024C80003D14FF0000000F00BF880BDEFF311804E
:1024D8004FF0500181F3118870474FF00003184600
:1024E80080F31188704700BFEFF30980114B1A6819
:1024F8001EF0100F08BF20ED108A20E9F04F106081
:102508002DE908404FF0500080F31188FFF704F8D8
:102518004FF0000080F31188BDE80840196808688A
:10252800B0E8F04F1EF0100F08BFB0EC108A80F32F
:10253800098870476000002080B500AF4EF604534C
:10254800CEF200034FF080521A60FFF7BFFFFEF78C
:10255800FDFE4FF00000FFF7C3FF80BD80B400AF61
:102568004EF21403CEF2000346F6FF12C0F2180230
:102578001A604EF21003CEF200034FF007021A6001
:10258800BD4680BC704700BFDFF80C00016841F40D
:10259800700101607047000088ED00E080B58AB0E6
:1025A80000AF78604FF00003FB61FEF7F7FD42F2E1
:1025B800A813C2F200031B68002B33D142F2981310
:1025C800C2F2000340F29812C2F200021A6042F20C
:1025D8009813C2F200034FF000025A6042F2A013AF
:1025E800C2F200034FF400525A6042F2A013C2F242
:1025F80000034FF000021A6040F29813C2F2000381
:102608007B617B694FF400525A607A6942F2A013E9
:10261800C2F20003136042F2A813C2F200034FF0A3
:1026280001021A607B68002B12D049F27413C0F6BD
:1026380000031B887A68D3187B607B6803F0070364
:10264800002B05D07B6823F0070303F108037B60A8
:102658007B68002B72D07A6841F6FF739A426DD876
:1026680042F29813C2F200033B6242F29813C2F29C
:1026780000031B687B6204E07B6A3B627B6A1B6821
:102688007B627B6A5A687B689A4203D27B6A1B68C2
:10269800002BF1D17A6A42F2A013C2F200039A42E7
:1026A8004CD03B6A1A6849F27413C0F600031B88C1
:1026B800D318FB617B6A1A683B6A1A607B6A5A689E
:1026C8007B68D21A49F27413C0F600031B884FEADC
:1026D80043039A4225D97A6A7B68D3183B617B6A9F
:1026E8005A687B68D21A3B695A607B6A7A685A6072
:1026F8003B695B68FB6042F29813C2F20003BB615E
:1027080002E0BB691B68BB61BB691B685A68FB6850
:102718009A42F6D3BB691A683B691A60BB693A6981
:102728001A6040F20803C2F200031A687B6A5B6809
:10273800D21A40F20803C2F200031A60FEF740FD05
:10274800FB69184607F12807BD4680BD80B586B0ED
:1027580000AF78607B683B617B68002B35D049F21D
:102768007413C0F600031B88C3F100033A69D31839
:102778003B613B69FB60FEF711FDFB685B68BB6072
:1027880042F29813C2F200037B6102E07B691B6886
:102798007B617B691B685A68BB689A42F6D37B6980
:1027A8001A68FB681A607B69FA681A60FB685A68DD
:1027B80040F20803C2F200031B68D21840F2080373
:1027C800C2F200031A60FEF7FBFC07F11807BD46CA
:1027D80080BD00BF80B500AF4FF46053C4F2020360
:1027E8004FF46052C4F20202126842F001021A6009
:1027F8004FF46053C4F202034FF000029A604FF4A2
:102808006053C4F202034FF46052C4F20202126829
:1028180022F0847222F480321A604FF46053C4F2BA
:10282800020343F21002C2F200425A604FF46053AE
:10283800C4F202034FF46052C4F20202126822F496
:1028480080221A604FF46053C4F202034FF0000272
:10285800DA6000F0B9F880BD80B487B000AF4FF0FF
:1028680000033B614FF000037B614FF00203FB6004
:102878004FF00003BB604FF002037B604FF46053DE
:10288800C4F202039B6803F00C033B613B69042B11
:102898000DD0082B15D0002B69D140F20C03C2F2E1
:1028A80000034FF41052C0F2F4021A6069E040F2DB
:1028B8000C03C2F200034FF49052C0F27A021A607D
:1028C8005FE04FF46053C4F202035B6803F48003D3
:1028D8004FEA9353BB604FF46053C4F202035B6842
:1028E80003F03F037B60BB68002B14D04FF4905378
:1028F800C0F27A037A68B3FBF2F24FF46053C4F281
:102908000203596847F6C0730B404FEA931303FB61
:1029180002F37B6113E04FF41053C0F2F4037A68BA
:10292800B3FBF2F24FF46053C4F20203596847F65E
:10293800C0730B404FEA931303FB02F37B614FF420
:102948006053C4F202035B6803F440334FEA134355
:1029580003F101034FEA4303FB607A69FB68B2FBAA
:10296800F3F240F20C03C2F200031A6009E040F2ED
:102978000C03C2F200034FF41052C0F2F4021A60C2
:1029880000BF4FF46053C4F202039B6803F0F003E6
:102998004FEA131240F21003C2F200039B5CDBB251
:1029A8003B6140F20C03C2F200031A683B6922FA49
:1029B80003F240F20C03C2F200031A6007F11C078D
:1029C800BD4680BC704700BF80B483B000AF4FF0F5
:1029D80000037B604FF000033B604FF46053C4F288
:1029E80002034FF46052C4F20202126842F48032C9
:1029F8001A604FF46053C4F202031B6803F40033F7
:102A08003B607B6803F101037B603B68002B03D1CB
:102A18007B68B3F5A06FECD14FF46053C4F20203A6
:102A28001B6803F40033002B03D04FF001033B6015
:102A380002E04FF000033B603B68012B40F08280CE
:102A48004FF46053C4F202034FF46052C4F202021E
:102A5800126C42F080521A644FF4E043C4F200034F
:102A68004FF4E042C4F20002126842F440421A6095
:102A78004FF46053C4F202034FF46052C4F20202EE
:102A880092689A604FF46053C4F202034FF46052A4
:102A9800C4F20202926842F400429A604FF4605312
:102AA800C4F202034FF46052C4F20202926842F484
:102AB800A0529A604FF46053C4F2020345F2080230
:102AC800C0F240725A604FF46053C4F202034FF4EC
:102AD8006052C4F20202126842F080721A6000BFAB
:102AE8004FF46053C4F202031B6803F00073002B19
:102AF800F6D04FF47053C4F2020340F205621A6034
:102B08004FF46053C4F202034FF46052C4F202025D
:102B1800926822F003029A604FF46053C4F20203F1
:102B28004FF46052C4F20202926842F002029A60C4
:102B380000BF4FF46053C4F202039B6803F00C0318
:102B4800082BF6D14FF46053C4F202034FF46052DD
:102B5800C4F20202926822F400029A604FF46053B1
:102B6800C4F202034FF4C042C2F20002C3F8842048
:102B78004FF46053C4F202034FF46052C4F20202ED
:102B8800126842F080621A6000BF4FF46053C4F2CA
:102B980002031B6803F00063002BF6D007F10C0753
:102BA800BD4680BC704700BF80B586B000AF3B46CD
:102BB800184600F09DFD4FF400104FF0010100F0A1
:102BC800E9FE4FF002004FF0010100F0B9FE4FF0AE
:102BD800C0033B614FF002033B754FF00103BB7527
:102BE8004FF002037B754FF00103FB7507F11003EB
:102BF8004FF48060C4F20200194600F049FB4FF41C
:102C08008060C4F202004FF006014FF0040200F0A9
:102C180001FC4FF48060C4F202004FF007014FF04E
:102C2800040200F0F7FB4FF400104FF0010100F030
:102C3800DBFE4FF400104FF0000100F0D5FE4FF41A
:102C4800A840C4F2000000F039FC4FF00003BB803C
:102C58004BF6FF73FB804FF000033B814FF00003FE
:102C68007B814FF48043BB8148F2A063C0F201032B
:102C78003B603B464FF4A840C4F20000194600F000
:102C880061FC4FF4A840C4F200004FF0010100F0CD
:102C980051FD07F11807BD4680BD00BF80B582B061
:102CA80000AF786049F27810C0F6000000F03AF8FA
:102CB8004FF44060C4F202004FF4005100F08AFB68
:102CC8004FF44060C4F202004FF4005100F090FB52
:102CD8004FF03200FEF7F0F9F2E700BF80B582B09E
:102CE80000AF4FF008004FF0010100F029FE4FF44B
:102CF80070433B604FF001033B714FF00003BB7121
:102D08004FF003037B714FF00003FB713B464FF418
:102D18004060C4F20200194600F0BAFA07F1080749
:102D2800BD4680BD80B582B000AF7860FEF736FA48
:102D3800786805F0D9FFFEF743FA07F10807BD46A2
:102D480080BD00BF80B400AFFEE700BF80B500AF14
:102D580042F2F013C2F200039B7A002B13D04EF616
:102D68001053CEF200034EF61052CEF20002126853
:102D780022F006021A60FFF72DFD42F2F010C2F2AF
:102D8800000002F093FC4FF4802000F071FA80BD3F
:102D980080B500AF42F2F010C2F2000002F030FE3F
:102DA80080BD00BF90B593B006AFF860B9607A6097
:102DB8004FF000033B624FF00003BB614FF000038C
:102DC8007B614FF00003FB6278684FF000014FF41D
:102DD800807204F0C3F9F868796800F095F8F86A29
:102DE80003F05AFC02460B4607F12004CDE9002304
:102DF80007F11F03029307F11403039307F11E035E
:102E0800049307F118030593786849F2E011C0F6B6
:102E18000001224604F01AF90346002B68DDBB695D
:102E2800002B0AD1BB684FF000021A60BB684FF054
:102E380000025A604FF000035BE0FB7F532B05D183
:102E4800D7ED0B7AF1EE677AC7ED0B7ABB7F572B7C
:102E580005D1D7ED057AF1EE677AC7ED057A97EDDA
:102E68000B7ADFED267AC7EE277AC7ED0A7A97ED57
:102E78000A7ADFED227A67EE277A97ED0B7A77EEFA
:102E8800677AC7ED097A97ED097ADFED1D7A87EE43
:102E9800277AD7ED0A7A77EE277ABB68C3ED017AED
:102EA80097ED057ADFED157A87EE277ADFED157A4B
:102EB80067EE277AC7ED0A7A97ED057AD7ED0A6AA1
:102EC800DFED0E7A66EEA77A77EE677AC7ED097AB4
:102ED80097ED097ADFED0A7A87EE277AD7ED0A7A35
:102EE80077EE277ABB68C3ED007A4FF0010300E064
:102EF800FFE7184607F13407BD4690BD0000C842F9
:102F0800000070420AD7233C90B585B000AF7860C6
:102F1800396000BF786800F077F90346242BF9D1AF
:102F28004FF00003FB6020E0FB683A68D41878682B
:102F380000F06AF90346DBB22370FB683A68D318DD
:102F48001B780D2B0DD1FB683A68D3184FF000029F
:102F58001A7049F2F810C0F60000396805F0C4FE8E
:102F68000CE0FB6803F10103FB60FB68FF2BDBDD72
:102F780049F2FC10C0F6000005F0B6FE07F1140790
:102F8800BD4690BD80B58AB000AF4FF480204FF0A9
:102F9800010100F0FFFC4FF008004FF0010100F0C4
:102FA800CFFC4FF44060C4F202004FF008014FF02C
:102FB800070200F02FFA4FF44060C4F202004FF00D
:102FC80009014FF0070200F025FA4FF480733B62C5
:102FD8004FF0020387F824304FF0000387F82630BB
:102FE8004FF0010387F827304FF0030387F82530A7
:102FF80007F120034FF44060C4F20200194600F0C4
:1030080047F94FF400733B624FF0020387F824300E
:103018004FF0000387F8273007F120034FF4406092
:10302800C4F20200194600F033F907F10403184608
:1030380000F004FE07F104034FF49040C4F20000CE
:10304800194600F0D1FD4FF496533B614FF0000351
:10305800BB824FF00003FB824FF000033B834FF02D
:103068000C037B834FF00003BB8307F110034FF47D
:103078009040C4F20000194600F0E0FC4FF4904084
:10308800C4F2000040F225514FF0010200F010FE9A
:103098004FF49040C4F200004FF0010100F0E8FD49
:1030A80007F12807BD4680BD80B58AB000AF4FF450
:1030B80000304FF0010100F06DFC4FF001004FF0BF
:1030C800010100F03DFC4FF00000C4F202004FF097
:1030D80002014FF0070200F09DF94FF00000C4F222
:1030E80002004FF003014FF0070200F093F94FF090
:1030F80004033B624FF0020387F824304FF00003CB
:1031080087F826304FF0010387F827304FF0030384
:1031180087F8253007F120034FF00000C4F20200C1
:10312800194600F0B5F84FF008033B624FF0020370
:1031380087F824304FF0000387F8273007F1200381
:103148004FF00000C4F20200194600F0A1F807F1A0
:103158000403184600F072FD07F104034FF4884099
:10316800C4F20000194600F03FFD4FF416533B61CE
:103178004FF00003BB824FF00003FB824FF00003C7
:103188003B834FF00C037B834FF00003BB8307F1B5
:1031980010034FF48840C4F20000194600F04EFCBA
:1031A8004FF48840C4F2000040F225514FF001026C
:1031B80000F07EFD4FF48840C4F200004FF001019A
:1031C80000F056FD07F12807BD4680BD80B483B0E6
:1031D80000AF7860396000BF7B681B889BB203F042
:1031E8008003002BF8D03B689BB24FEAC3534FEAE9
:1031F800D3539AB27B689A803B68184607F10C074C
:10320800BD4680BC704700BF80B483B000AF786013
:1032180000BF7B681B889BB203F02003002BF8D00B
:103228007B689B889BB24FEAC3534FEAD353184637
:1032380007F10C07BD4680BC704700BF80B584B05D
:1032480000AF786039603B68FB6009E0FB681B7879
:1032580078681946FFF7BAFFFB6803F10103FB60C2
:10326800FB681B78002BF1D107F11007BD4680BD24
:1032780080B483B000AF78604FF47053C4F2010398
:103288007A685A6107F10C07BD4680BC704700BFD9
:1032980080B487B000AF786039604FF000037B617D
:1032A8004FF000033B614FF00003FB604FF0000359
:1032B8007B6186E07B694FF0010202FA03F33B6110
:1032C8003B681A683B691340FB60FA683B699A429D
:1032D80073D17B681A687B694FEA43034FF0030197
:1032E80001FA03F36FEA03031A407B681A607B68EC
:1032F8001A683B681B7919467B694FEA430301FA50
:1033080003F31A437B681A603B681B79012B03D0CF
:103318003B681B79022B34D17B689A687B694FEA3A
:1033280043034FF0030101FA03F36FEA03031A4062
:103338007B689A607B689A683B685B7919467B6909
:103348004FEA430301FA03F31A437B689A607B68E8
:103358005A687B699BB24FF0010101FA03F36FEAE7
:1033680003031A407B685A607B685A683B689B79FC
:1033780019467B699BB201FA03F39BB21A437B6837
:103388005A607B68DA687B699BB24FEA43034FF067
:10339800030101FA03F36FEA03031A407B68DA605A
:1033A8007B68DA683B68DB7919467B694FEA430337
:1033B80001FA03F31A437B68DA607B6903F10103BE
:1033C8007B617B690F2B7FF675AF07F11C07BD4644
:1033D80080BC704780B483B000AF78600B467B80B8
:1033E8007B687A885A8307F10C07BD4680BC704712
:1033F80080B483B000AF78600B467B807B685A69E5
:103408007B885A407B685A6107F10C07BD4680BC2F
:10341800704700BF80B485B000AF786013460A4695
:103428007A807B704FF00003FB604FF00003BB60B5
:103438007A787B8803F007034FEA830302FA03F3E1
:10344800FB607B884FEAD3039BB21A467B884FEA1E
:10345800D3039BB219467B6801F1080153F8211088
:103468007B8803F007034FEA83034FF00F0000FA4D
:1034780003F36FEA030319407B6802F1080243F87B
:1034880022107B884FEAD3039BB21A467B6802F16D
:10349800080253F82220FB681343BB607B884FEA7D
:1034A800D3039BB21A467B6802F10802B96843F855
:1034B800221007F11407BD4680BC704780B582B062
:1034C80000AF78607A684FF4A843C4F200039A42C8
:1034D8000CD14FF400104FF0010100F085FA4FF4C1
:1034E80000104FF0000100F07FFA26E07A684FF4F0
:1034F800B043C4F200039A420CD14FF480004FF05D
:10350800010100F071FA4FF480004FF0000100F063
:103518006BFA12E07A684FF4B843C4F200039A4297
:103528000BD14FF400004FF0010100F05DFA4FF4A9
:1035380000004FF0000100F057FA07F10807BD46F8
:1035480080BD00BF80B58AB000AF786039604FF0A9
:103558000003FB844FF000037B844FF00403BB841B
:103568004FF49053C0F27A03FB617B689B88FB841D
:10357800FB8C23F03F03FB8407F10C03184600F093
:10358800F9F87B69FB61FA694DF68363C4F21B3372
:10359800A3FB02134FEA93437B84FA8C7B8C13437F
:1035A800FB847B68FA8C9A807B681B889BB223F02B
:1035B80001039AB27B681A804FF00003FB843B68D2
:1035C8001A6848F2A063C0F201039A4218D83B680F
:1035D8001B684FEA4303FA69B2FBF3F3BB84BB8C65
:1035E800032B02D84FF00403BB84FA8CBB8C134323
:1035F800FB847B8C03F101039AB27B681A844BE04D
:103608003B68DA884BF6FF739A420AD13B681A681E
:1036180013464FEA43039B18FA69B2FBF3F3BB84E2
:1036280010E03B681A6813464FEA83039B184FEA79
:1036380083029B18FA69B2FBF3F3BB84BB8C43F497
:103648008043BB84BB8C4FEA03534FEA1353002BD0
:1036580003D1BB8C43F00103BB84BA8CFB8C1343AE
:103668009BB26FEA43436FEA5343FB847B8C4FF46E
:10367800967202FB03F244F6D353C1F2620383FB52
:1036880002134FEAA3114FEAE273CB1A9BB203F17C
:1036980001039AB27B681A847B68FA8C9A837B68E8
:1036A8001B889BB243F001039AB27B681A807B683F
:1036B8001B88FB84FB8C23F4816323F00203FB84C7
:1036C8003B689A883B685B8913439AB2FB8C134327
:1036D800FB847B68FA8C1A803B689A893B681B8953
:1036E80013439AB27B681A8107F12807BD4680BD4B
:1036F80080B483B000AF78607B6841F288321A608A
:103708007B684FF000029A807B684BF6FF72DA8084
:103718007B684FF000021A817B684FF000025A81E3
:103728007B684FF480429A8107F10C07BD4680BC44
:10373800704700BF80B483B000AF78600B46FB7061
:10374800FB78002B08D07B681B889BB243F00103F1
:103758009AB27B681A8007E07B681B889BB223F0CB
:1037680001039AB27B681A8007F10C07BD4680BC3A
:10377800704700BF80B489B000AF78604FF0000395
:10378800BB614FF000037B614FF00003FB614FF01A
:1037980002033B614FF00003FB604FF00203BB6084
:1037A8004FF46053C4F202039B6803F00C03BB613F
:1037B800BB69042B0AD0082B0FD0002B60D17A6884
:1037C8004FF41053C0F2F403136060E07A684FF4CA
:1037D8009053C0F27A03136059E04FF46053C4F277
:1037E80002035B6803F480034FEA9353FB604FF4D2
:1037F8006053C4F202035B6803F03F03BB60FB68DD
:10380800002B14D04FF49053C0F27A03BA68B3FB7C
:10381800F2F24FF46053C4F20203596847F6C073DA
:103828000B404FEA931303FB02F3FB6113E04FF4E1
:103838001053C0F2F403BA68B3FBF2F24FF46053CA
:10384800C4F20203596847F6C0730B404FEA93135A
:1038580003FB02F3FB614FF46053C4F202035B689D
:1038680003F440334FEA134303F101034FEA4303E0
:103878003B61FA693B69B2FBF3F27B681A6006E0C8
:103888007A684FF41053C0F2F403136000BF4FF48A
:103898006053C4F202039B6803F0F003BB61BB6989
:1038A8004FEA1313BB6140F22003C2F20003BA6966
:1038B8009B181B78DBB27B617B681A687B6922FAEC
:1038C80003F27B685A604FF46053C4F202039B68AA
:1038D80003F4E053BB61BB694FEA9323BB6140F239
:1038E8002003C2F20003BA699B181B78DBB27B6124
:1038F8007B685A687B6922FA03F27B689A604FF406
:103908006053C4F202039B6803F46043BB61BB6964
:103918004FEA5333BB6140F22003C2F20003BA6995
:103928009B181B78DBB27B617B685A687B6922FA3B
:1039380003F27B68DA6007F12407BD4680BC704754
:1039480080B483B000AF78600B46FB70FB78002B27
:103958000CD04FF46053C4F202034FF46052C4F227
:103968000202116B7A680A431A630DE04FF4605340
:10397800C4F202034FF46052C4F20202116B7A6877
:103988006FEA02020A401A6307F10C07BD4680BCC1
:10399800704700BF80B483B000AF78600B46FB70FF
:1039A800FB78002B0CD04FF46053C4F202034FF4A1
:1039B8006052C4F20202116C7A680A431A640DE07C
:1039C8004FF46053C4F202034FF46052C4F202028F
:1039D800116C7A686FEA02020A401A6407F10C0750
:1039E800BD4680BC704700BF80B483B000AF78602C
:1039F8000B46FB70FB78002B0CD04FF46053C4F2DD
:103A080002034FF46052C4F20202116A7A680A4350
:103A18001A620DE04FF46053C4F202034FF460528F
:103A2800C4F20202116A7A686FEA02020A401A6254
:103A380007F10C07BD4680BC704700BF80B58AB04F
:103A480000AF786039604FF000037B624FF00003ED
:103A58003B624FF00003FB614FF00003BB617B68E2
:103A68001B8A9BB27B627B6A23F440537B623B6870
:103A7800DB887A6A13437B627B6A9AB27B681A8214
:103A88007B689B899BB27B627B6A23F4B05323F0EB
:103A98000C037B623B689A883B681B8913439AB284
:103AA8003B685B8913439BB27A6A13437B627B6AE8
:103AB8009AB27B689A817B689B8A9BB27B627B6A9D
:103AC80023F440737B623B689B897A6A13437B6269
:103AD8007B6A9AB27B689A8207F108031846FFF757
:103AE80049FE7A684FF48053C4F201039A4206D023
:103AF8007A684FF4A053C4F201039A4202D17B6959
:103B08003B6201E03B693B627B689B899BB29BB24D
:103B18001BB2002B0FDA3A6A13464FEA83039B184D
:103B28004FEA83029A183B681B684FEA4303B2FBCB
:103B3800F3F3FB610EE03A6A13464FEA83039B18DE
:103B48004FEA83029A183B681B684FEA8303B2FB6B
:103B5800F3F3FB61FA6948F21F53C5F2EB13A3FBB9
:103B680002134FEA53134FEA03137B627B6A4FEA4F
:103B780013134FF0640202FB03F3FA69D31ABB6113
:103B88007B689B899BB29BB21BB2002B12DABB6984
:103B98004FEAC30303F1320248F21F53C5F2EB1395
:103BA800A3FB02134FEA531303F007037A6A134384
:103BB8007B6211E0BB694FEA031303F1320248F25A
:103BC8001F53C5F2EB13A3FB02134FEA531303F081
:103BD8000F037A6A13437B627B6A9AB27B681A8105
:103BE80007F12807BD4680BD80B485B000AF786076
:103BF80039604FF00003FB607B681B8A9BB2FB6057
:103C0800FB6823F47063FB603B681A883B685B8839
:103C180013439AB23B689B8813439AB23B68DB888C
:103C280013439BB2FA681343FB60FB689AB27B6844
:103C38001A8207F11407BD4680BC704780B483B070
:103C480000AF78607B684FF000021A807B684FF005
:103C580000025A807B684FF000029A807B684FF020
:103C68000002DA8007F10C07BD4680BC704700BF30
:103C780080B483B000AF78600B46FB70FB78002BF4
:103C880008D07B689B899BB243F400539AB27B6847
:103C98009A8107E07B689B899BB223F400539AB210
:103CA8007B689A8107F10C07BD4680BC704700BF4E
:103CB80080B487B000AF786013460A467A807B707C
:103CC8004FF000033B614FF00003FB604FF000032F
:103CD800BB604FF000037B617B687B617B88DBB254
:103CE8004FEA5313DBB23B617B8803F01F03FB6091
:103CF800FB684FF0010202FA03F3BB603B69012B3A
:103D080004D17B6903F10C037B610BE03B69022B57
:103D180004D17B6903F110037B6103E07B6903F144
:103D280014037B617B78002B06D07B697A69116864
:103D3800BA680A431A6007E07B697A691168BA6849
:103D48006FEA02020A401A6007F11C07BD4680BCF0
:103D5800704700BF80B485B000AF78604FF00003B3
:103D6800FB607A6813464FEA03139B1A4FEAC303B2
:103D78001A4644F62513C2F29243A3FB0213D21A41
:103D88004FEA52029B184FEA9303BB6000E000BF62
:103D9800FB6803F10103FB60FA68BB689A42F6D935
:103DA80000BF07F11407BD4680BC704780B584B0DA
:103DB80000AF786007F108037868194600F0B0FE94
:103DC8003B7A03F01F03012B0AD0022B0FD0002BE4
:103DD80014D107F108037868194600F065FA16E06F
:103DE80007F108037868194600F0B0FA0FE007F108
:103DF80008037868194600F0DFFA08E03B7A23F0F8
:103E08007F03DBB27868194601F058FD00BF4FF018
:103E18000003184607F11007BD4680BD80B584B081
:103E280000AF78600B46FB70FB78002B45D17B68B0
:103E380003F55C73FB607B6893F81131032B4FD15A
:103E4800FB68DA69FB689B689A4221D9FB68DA69E2
:103E5800FB689B68D21AFB68DA617B68DB78012B08
:103E680006D1FB68DA68FB689B68D218FB68DA60E1
:103E7800FB68DA68FB689968FB68DB69994238BFB8
:103E88000B469BB2786811461A4600F0B9F927E04C
:103E98007B68D3F8E0351B69002B0AD07B6893F860
:103EA8001231032B05D17B68D3F8E0351B6978689C
:103EB8009847786800F0BCF912E07B68D3F8E035E1
:103EC8009B69002B0CD07B6893F81231032B07D128
:103ED8007B68D3F8E0359B69FA787868114698478B
:103EE8004FF00003184607F11007BD4680BD00BF1C
:103EF80080B584B000AF78600B46FB70FB78002B70
:103F080063D17B6803F58C73FB607B6893F8113190
:103F1800022B6ED1FB68DA69FB689B689A421CD950
:103F2800FB68DA69FB689B68D21AFB68DA617B6810
:103F3800DB78012B06D1FB68DA68FB689B68D2182E
:103F4800FB68DA60FB68DA68FB68DB699BB2786853
:103F580011461A4600F03CF94BE0FB681B6AFA6808
:103F68009268B3FBF2F102FB01F29B1A002B17D106
:103F7800FB681A6AFB689B689A4211D3FB681A6A45
:103F8800FB685B6A9A420BD278684FF000014FF0E9
:103F9800000200F01DF9FB684FF000025A6229E0A8
:103FA8007B68D3F8E035DB68002B0AD07B6893F890
:103FB8001231032B05D17B68D3F8E035DB687868CC
:103FC8009847786800F052F913E07B68D3F8E03539
:103FD8005B69002B0ED07B6893F81231032B09D153
:103FE8007B68D3F8E0355B69FA78786811469847BA
:103FF80000E000BF4FF00003184607F11007BD4668
:1040080080BD00BF80B582B000AF786078684FF09F
:1040180000014FF040024FF0000301F071FB786897
:104028004FF080014FF040024FF0000301F068FBB1
:104038007B684FF0010283F812217B68D3F8E435DE
:104048005B687A689278104698474FF000031846E4
:1040580007F10807BD4680BD80B582B000AF786023
:104068007B68D3F8E4351B6998477B684FF00302F7
:1040780083F812214FF00003184607F10807BD46E0
:1040880080BD00BF80B582B000AF78607B684FF01C
:10409800040283F812217B68D3F8E435DB6898477B
:1040A8004FF00003184607F10807BD4680BD00BF62
:1040B80080B582B000AF78607B68D3F8E035DB6903
:1040C800002B05D07B68D3F8E035DB697868984722
:1040D8004FF00003184607F10807BD4680BD00BF32
:1040E80080B582B000AF78600B46FB707B68D3F870
:1040F800E0351B68FA787868114698477B68D3F8EA
:10410800E4359B6898474FF00003184607F1080705
:10411800BD4680BD80B582B000AF78600B46FB70AD
:104128007B68D3F8E0355B68FA7878681146984779
:104138004FF00003184607F10807BD4680BD00BFD1
:1041480080B582B000AF78607B68D3F8E0351B6A31
:10415800786898474FF00003184607F10807BD46EE
:1041680080BD00BF80B582B000AF78607B68D3F8AF
:10417800E0355B6A786898474FF00003184607F106
:104188000807BD4680BD00BF80B586B000AFF860A7
:10419800B9601346FB804FF00003FB75FA88FB6893
:1041A800C3F83821FA88FB68C3F83421FB684FF05C
:1041B800020283F81121FB88F8684FF00001BA6801
:1041C80001F03AFBFB7D184607F11807BD4680BD94
:1041D80080B586B000AFF860B9601346FB804FF039
:1041E8000003FB75FB88F8684FF00001BA6801F01E
:1041F80023FBFB7D184607F11807BD4680BD00BFAD
:1042080080B586B000AFF860B9601346FB804FF008
:104218000003FB75FB88F8684FF00001BA6801F0ED
:10422800C5FAFB7D184607F11807BD4680BD00BFDB
:1042380080B584B000AF78604FF00003FB737B68F3
:104248004FF0040283F8112178684FF000014FF015
:1042580000024FF0000301F0EFFA786801F0EAF984
:10426800FB7B184607F11007BD4680BD80B584B0BA
:1042780000AF78604FF00003FB737B684FF00502D6
:1042880083F8112178684FF000014FF000024FF0D9
:10429800000301F08BFA786801F0CCF9FB7B184633
:1042A80007F11007BD4680BD80B584B000AF7860C7
:1042B80039604FF00003FB733B685B78092B3AD8F1
:1042C80001A252F823F000BF21430008354300083B
:1042D8003F4300082B4300083F43000803430008FE
:1042E800F94200083F430008174300080D4300083F
:1042F8007868396800F052F922E07868396800F087
:1043080031FA1DE07868396800F06CFA18E07868CE
:10431800396800F001FB13E07868396800F030FB79
:104328000EE07868396800F05FFB09E07868396862
:1043380000F0CAFB04E07868396800F03BFC00BF75
:10434800FB7B184607F11007BD4680BD80B584B0D9
:1043580000AF786039604FF00003FB737B6893F817
:104368001231032B1BD13B689B88DBB2012B11D880
:104378007B68D3F8E0359B687868396898473B686C
:10438800DB88002B10D1FB7B002B0DD17868FFF761
:104398004FFF09E07868396800F00CFC04E07868A1
:1043A800396800F007FC00E000BFFB7B184607F106
:1043B8001007BD4680BD00BF80B584B000AF7860EF
:1043C80039604FF00003FB733B689B88BB733B6805
:1043D8005B78012B39D0032B02D0002B6CD0D5E0B1
:1043E8007B6893F81231022B02D0032B0CD025E006
:1043F800BB7B002B27D0BB7B802B24D0BB7B786872
:10440800194601F05BFA1EE03B685B88002B0AD175
:10441800BB7B002B07D0BB7B802B04D0BB7B786891
:10442800194601F04BFA7B68D3F8E0359B68786849
:10443800396898477868FFF7FBFE05E078683968BF
:1044480000F0B8FB00E000BFA1E07B6893F81231F0
:10445800022B02D0032B0CD025E0BB7B002B27D0EE
:10446800BB7B802B24D0BB7B7868194601F026FAE9
:104478001EE03B685B88002B1CD1BB7B002B0ED059
:10448800BB7B802B0BD0BB7B7868194601F058FAB0
:104498007B68D3F8E0359B6878683968984778680E
:1044A800FFF7C6FE06E07868396800F083FB02E093
:1044B80000BF00E000BF6AE07B6893F81231022B6E
:1044C80002D0032B0CD05AE0BB7B002B5CD0BB7B0B
:1044D800802B59D0BB7B7868194601F0EFF953E07F
:1044E800BB7B5BB2002B1FDABB7B03F07F027968D2
:1044F80013464FEA83039B184FEAC303CB1803F50F
:104508008C739B78002B07D042F2AC13C2F20003E5
:104518004FF001021A6028E042F2AC13C2F2000325
:104528004FF000021A6020E0BB7B5BB2002B1CDB63
:10453800BA7B796813464FEA83039B184FEAC30393
:10454800CB1803F55C739B78002B07D042F2AC13B1
:10455800C2F200034FF001021A6006E042F2AC1307
:10456800C2F200034FF000021A60786842F2AC1100
:10457800C2F200014FF00202FFF706FE05E078687C
:10458800396800F017FB00E000BF00E000BFFB7BCC
:10459800184607F11007BD4680BD00BF80B584B03E
:1045A80000AF786039603B685B884FEA13239BB2A1
:1045B80003F1FF33062B00F2B58001A252F823F075
:1045C800E545000819460008474600082D47000839
:1045D8002D47000819470008234700087B68D3F8CF
:1045E800E8351B687A68917807F10A02084611468F
:1045F8009847F8603B68DB88402B05D07B6893F8C8
:104608001231012B40F093804FF008037B818EE03C
:104618007B68D3F8E0359B6A7A68917807F10A02DB
:10462800084611469847F860FB6803F101034FF00C
:1046380002021A707B68FA68C3F8EC2578E03B68D8
:104648005B88DBB2052B5DD801A252F823F000BFCE
:10465800714600088B460008A5460008BF460008BA
:10466800D9460008F34600087B68D3F8E8355B684C
:104678007A68917807F10A02084611469847F86067
:1046880045E07B68D3F8E8359B687A68917807F14C
:104698000A02084611469847F86038E07B68D3F864
:1046A800E835DB687A68917807F10A02084611460E
:1046B8009847F8602BE07B68D3F8E8351B697A687F
:1046C800917807F10A02084611469847F8601EE0FB
:1046D8007B68D3F8E8355B697A68917807F10A0254
:1046E800084611469847F86011E07B68D3F8E8352A
:1046F8009B697A68917807F10A020846114698473B
:10470800F86004E07868396800F054FA25E00FE0B2
:104718007868396800F04EFA1FE07868396800F068
:1047280049FA1AE07868396800F044FA15E000BFE1
:104738007B89002B11D03B68DB88002B0DD03B68B0
:10474800DA887B899A4238BF13469BB27B817B8982
:104758007868F9681A46FFF717FD07F11007BD4694
:1047680080BD00BF80B584B000AF786039603B6819
:104778009B88002B2ED13B68DB88002B2AD13B6815
:104788005B88DBB203F07F03FB737B6893F812311D
:10479800032B04D17868396800F00CFA1EE07B68B6
:1047A800FA7B83F81321FB7B7868194601F00AF934
:1047B8007868FFF73DFDFB7B002B05D07B684FF049
:1047C800020283F8122109E07B684FF0010283F8A6
:1047D800122103E07868396800F0ECF907F1100756
:1047E800BD4680BD80B582B000AF786039603B6857
:1047F8005B88DAB242F2B813C2F200031A7042F2CE
:10480800B813C2F200031B78012B04D97868396801
:1048180000F0D0F97CE07B6893F81231022B02D0CB
:10482800032B25D06FE042F2B813C2F200031B78C5
:10483800002B19D042F2B813C2F200031A787B6831
:1048480083F810217B684FF0030283F8122142F2AB
:10485800B813C2F200031B7878681946FFF740FCCA
:104868007868FFF7E5FC53E07868FFF7E1FC4FE074
:1048780042F2B813C2F200031B78002B19D17B68EF
:104888004FF0020283F8122142F2B813C2F2000379
:104898001A787B6883F8102142F2B813C2F2000339
:1048A8001B7878681946FFF735FC7868FFF7C0FC75
:1048B8002EE07B6893F8102142F2B813C2F200038D
:1048C8001B789A421BD07B6893F810317868194698
:1048D800FFF720FC42F2B813C2F200031A787B6893
:1048E80083F8102142F2B813C2F200031B787868EB
:1048F8001946FFF7F5FB7868FFF79AFC08E0786837
:10490800FFF796FC04E07868396800F053F900BFB7
:1049180007F10807BD4680BD80B582B000AF78605A
:1049280039603B68DB88012B04D07868396800F06F
:1049380041F920E07B6893F81231022B02D0032B57
:104948000AD013E0786842F2B011C2F200014FF0C9
:104958000102FFF719FC0EE07B6803F5887378689D
:1049680019464FF00102FFF70FFC04E07868396838
:1049780000F020F900BF07F10807BD4680BD00BF61
:1049880080B582B000AF786039607B6893F81231E7
:10499800A3F10203012B1DD87B68D3F81431002B37
:1049A80007D042F2B413C2F200034FF003021A60B8
:1049B80006E042F2B413C2F200034FF001021A609B
:1049C800786842F2B411C2F200014FF00102FFF719
:1049D800DBFB04E07868396800F0ECF800BF07F109
:1049E8000807BD4680BD00BF80B584B000AF7860C1
:1049F80039604FF00003FB733B685B88012B0FD1D4
:104A08007B684FF00102C3F814217B68D3F8E035C6
:104A18009B687868396898477868FFF709FC4FE021
:104A28003B685B88022B4BD13B689B88DBB2002B31
:104A380046D17B681B695B68BB603B689B884FEA13
:104A480013239BB2FB73FB7B03F1FF33042B30D89A
:104A580001A252F823F000BF754A0008834A0008F3
:104A6800914A00089F4A0008AD4A0008BB684FF009
:104A7800010262F30613BB601BE0BB684FF0020241
:104A880062F30613BB6014E0BB684FF0030262F3E5
:104A98000613BB600DE0BB684FF0040262F3061317
:104AA800BB6006E0BB684FF0050262F30613BB600B
:104AB80000BF7B681B69BA685A607868FFF7B8FB63
:104AC80007F11007BD4680BD80B582B000AF7860A1
:104AD80039607B6893F81231A3F10203012B13D8D4
:104AE8003B685B88012B15D17B684FF00002C3F847
:104AF80014217B68D3F8E0359B6878683968984753
:104B08007868FFF795FB05E07868396800F052F897
:104B180000BF00E000BF07F10807BD4680BD00BF29
:104B280080B483B000AF786039607B6893F8C8259B
:104B38003B681A707B6893F8C9253B685A707B6894
:104B480093F8CA351A467B6893F8CB354FEA0323A6
:104B58009BB2D3189AB23B685A807B6893F8CC35DD
:104B68001A467B6893F8CD354FEA03239BB2D318D6
:104B78009AB23B689A807B6893F8CE351A467B6870
:104B880093F8CF354FEA03239BB2D3189AB23B6808
:104B9800DA803B68DB881A467B68C3F83C217B686F
:104BA8004FF0010283F8112107F10C07BD4680BCC4
:104BB800704700BF80B582B000AF786039603B684D
:104BC8001B78DBB25BB2002B05DA78684FF0800106
:104BD80000F074FE0EE03B68DB88002B05D1786896
:104BE8004FF0800100F06AFE04E078684FF00001A1
:104BF80000F064FE786800F01DFD07F10807BD4667
:104C080080BD00BF80B489B000AFF860B960FA71A8
:104C1800BB804FF00003FB76FB68DB78002B2CD1C0
:104C28004FF000037B614FF00003FB61BB8803F189
:104C38000303002B01DA03F103034FEAA3037B61AB
:104C4800FB79FA6803F132034FEA8303D3189B68B0
:104C58003B614FF00003FB610BE0BB681A683B69DE
:104C68001A60FB6903F10103FB61BB6803F10403EC
:104C7800BB60FA697B699A42EFD3FB7E184607F15D
:104C88002407BD4680BC704780B489B000AFF86087
:104C9800B9601346FB804FF00003FB61FB8803F10A
:104CA8000303002B01DA03F103034FEAA303BB61FB
:104CB800FB68D3F8D0307B614FF00003FB610BE059
:104CC8007B691A68BB681A60FB6903F10103FB6121
:104CD800BB6803F10403BB60FA69BB699A42EFD36E
:104CE800BB68184607F12407BD4680BC704700BF63
:104CF80080B586B000AF786039604FF00003FB7470
:104D08004FF000037B614FF00003FB60FB6843F04A
:104D18002003FB603B68DBB203F01F03DAB2FB68D9
:104D280062F38A13FB607B68DB68FA681A617B6848
:104D3800DB681B69FB607B6903F101037B617A69AE
:104D48004FF45463C0F203039A4205D8FB6803F09A
:104D58002003002BEBD100E000BF4FF00300FEF76B
:104D6800F9FFFB7C184607F11807BD4680BD00BF58
:104D780080B483B000AF78607B68DB685B6903F060
:104D88000103184607F10C07BD4680BC704700BFF9
:104D980080B582B000AF78607868FFF7E9FF034616
:104DA800012B0CBF00230123DBB2184607F10807CB
:104DB800BD4680BD80B485B000AF78604FF0000379
:104DC800FB607B68DB685B69FB607B68DB689B6911
:104DD800FA681340FB60FB68184607F11407BD46E4
:104DE80080BC704780B485B000AF78604FF0000396
:104DF800FB737B681B699B68BB60BB68C3F341039B
:104E0800DBB2022B0BD0032B05D0012B03D04FF0C4
:104E18000303FB7307E04FF00203FB7303E04FF05B
:104E28000103FB7300BFFB7B184607F11407BD465F
:104E380080BC704780B487B000AF78604FF0000343
:104E4800FB754FF00003BB607B681B699B683B6187
:104E58007B689B691B68FB603B69C3F34103DBB25A
:104E6800022B04D0FB686FF30A03FB6006E0FB68C3
:104E78004FF0030262F30A03FB6000BF7B689B6983
:104E8800FA681A60BB6843F48073BB607B681B696F
:104E98007A6812695168BA686FEA02021140BA6802
:104EA8000A435A60FB7D184607F11C07BD4680BCC3
:104EB800704700BF80B487B000AF786039604FF0AA
:104EC8000003FB744FF00003FB604FF00003BB606E
:104ED8003B685B78012B12D13B681B787A6803F139
:104EE80004034FEA8303D3189B687B613B681B78F4
:104EF8004FF0010202FA03F39BB23B8114E03B68D6
:104F08001B787A6803F114034FEA8303D3185B68AC
:104F18007B613B681B784FF0010202FA03F39AB2F7
:104F2800BB6862F31F43BB607B691B68FB607B7BCC
:104F380023F07F03DBB2002B29D13B689B689BB22F
:104F48004FEA43534FEA53539AB2FB6862F30A039A
:104F5800FB603B68DB7803F00303DAB2FB6862F3BB
:104F68009343FB603B68DB88DBB203F00F03DAB2E4
:104F7800FB6862F39953FB60FB6843F08053FB6066
:104F8800FB6843F40043FB60FA687B691A607B683E
:104F98001B697A681269D169BA680A43DA61FB7CCD
:104FA800184607F11C07BD4680BC704780B588B01D
:104FB80000AF786039604FF00003FB774FF00003D3
:104FC800BB614FF000037B614FF000033B613B681E
:104FD8005B78012B40F0BD803B681B787A6803F151
:104FE80004034FEA8303D3189B681B687B613B6803
:104FF8001B787A6803F104034FEA8303D3189B688C
:105008001B693B613B685B69002B0AD13B696FF305
:1050180012033B613B694FF0010262F3DC433B61E1
:1050280028E03B685B6923F07F4222F478023B6901
:1050380062F312033B613B685A693B689B68D3186B
:1050480003F1FF323B689B68B2FBF3F39BB24FEA74
:1050580083534FEA93539AB23B6962F3DC433B6153
:105068003B68DB78012B05D13B694FF0010262F305
:105078005E733B613B681B787A6803F104034FEA6F
:105088008303D3189B683A691A617B68DB78012B24
:105098000CD13B681B787A6803F104034FEA830359
:1050A800D3189B683A6812695A6116E03B68DB7846
:1050B800012B12D03B685B69002B0ED03B681B7834
:1050C8004FF0010202FA03F3BB617B681B697A683F
:1050D8001269516BBA690A435A633B68DB78012B42
:1050E80014D17B681B699B68FB60FB68C3F30D23C5
:1050F8009BB203F00103002B04D17B6943F00053FA
:105108007B6103E07B6943F080537B617B6943F0FB
:1051180080637B617B6943F000437B613B681B785C
:105128007A6803F104034FEA8303D3189B687A690A
:105138001A603B68DB78012B40F09A803B68D9689D
:105148003B681A783B685B699BB27868FFF75AFD41
:105158008EE03B681B787A6803F114034FEA8303F7
:10516800D3185B681B687B613B681B787A6803F11E
:1051780014034FEA8303D3185B681B693B613B68E0
:105188005B69002B10D13B689B6823F07F4222F4B7
:1051980078023B6962F312033B613B694FF00102FD
:1051A80062F3DC433B6124E03B685A693B689B68D7
:1051B800D31803F1FF323B689B68B2FBF3F39BB251
:1051C8004FEA83534FEA93539AB23B6962F3DC4345
:1051D8003B613B69C3F3C9439BB23A68926802FBDF
:1051E80003F323F07F4222F478023B6962F312034F
:1051F8003B613B681B787A6803F114034FEA830329
:10520800D3185B683A691A617B68DB78012B0BD18C
:105218003B681B787A6803F114034FEA8303D318B9
:105228005B683A6812695A613B68DB78012B0CD1DC
:105238003B685B79002B04D07B6943F000537B61AA
:1052480003E07B6943F080537B617B6943F08063B3
:105258007B617B6943F000437B613B681B787A681C
:1052680003F114034FEA8303D3185B687A691A6061
:10527800FB7F184607F12007BD4680BD80B489B082
:1052880000AF786039604FF00003FB774FF0000300
:10529800BB614FF000033B614FF00003BB603B680C
:1052A8005B78012B75D17B689B697B617B691B6887
:1052B8003B617B691B69BB603B685B69002B0AD15A
:1052C8003B7A6FF306033B72BB7A4FF0010262F33D
:1052D800C403BB7224E03B685A693B689B689A42E6
:1052E8000ED93B689A683B685A613B689B68DBB299
:1052F80003F07F03DAB23B7A62F306033B7209E0FC
:105308003B685B69DBB203F07F03DAB23B7A62F396
:1053180006033B72BB7A4FF0010262F3C403BB720F
:10532800BA687B691A617B68DB78012B0BD13B6813
:105338001B787A6803F104034FEA8303D3189B6848
:105348003A6812695A613B6943F080633B613B6983
:1053580043F000433B613A697B691A607B68DB78FC
:10536800002B40F083803B685B69002B7ED03B6854
:105378001B784FF0010202FA03F3BA691343BB61C9
:105388007B681B697A681269516BBA690A435A6368
:105398006CE03B681B787A6803F114034FEA8303D7
:1053A800D3185B681B683B613B681B787A6803F11C
:1053B80014034FEA8303D3185B681B69BB603B681F
:1053C8005B69002B10D13B689B68DBB203F07F035D
:1053D800DAB23B7A62F306033B72BB7A4FF0010202
:1053E80062F3C403BB7213E03B689A683B685A6176
:1053F8003B689B68DBB203F07F03DAB23B7A62F367
:1054080006033B72BB7A4FF0010262F3C403BB721E
:105418003B681B787A6803F114034FEA8303D318B7
:105428005B68BA681A617B68DB78012B0BD13B6833
:105438001B787A6803F114034FEA8303D3185B6877
:105448003A6812695A613B6943F080633B613B6982
:1054580043F000433B613B681B787A6803F114030F
:105468004FEA8303D3185B683A691A60FB7F1846D2
:1054780007F12407BD4680BC704700BF80B487B0E1
:1054880000AF786039604FF00003FB754FF0000300
:10549800FB603B685B78012B1ED13B681B787A6800
:1054A80003F104034FEA8303D3189B683B613B690C
:1054B8001B68FB60FB7B23F07F03DBB2002B03D070
:1054C800FB6843F08043FB60FB6843F40013FB6018
:1054D800FA683B691A6013E03B681B787A6803F145
:1054E80014034FEA8303D3185B683B613B691B686D
:1054F800FB60FB6843F40013FB60FA683B691A60C1
:10550800FB7D184607F11C07BD4680BC704700BFED
:1055180080B487B000AF786039604FF00003FB7447
:105528004FF00003FB603B685B78012B0AD13B68B6
:105538001B787A6803F104034FEA8303D3189B6846
:105548007B6109E03B681B787A6803F114034FEA32
:105558008303D3185B687B617B691B68FB60FB680E
:105568006FF35553FB603B68DB78032B03D03B6834
:10557800DB78022B03D1FB6843F08053FB60FA68A9
:105588007B691A60FB7C184607F11C07BD4680BC86
:10559800704700BF80B485B000AF78607B681B6936
:1055A8009B69FB607B681B69DB69FA681340FB60D9
:1055B800FB684FEA1343184607F11407BD4680BC41
:1055C800704700BF80B485B000AF78600B46FB70B1
:1055D800FB787A6803F114034FEA8303D3185B68F6
:1055E8009B68FB607B681B695B69FA681340FB601A
:1055F800FB68184607F11407BD4680BC704700BF1A
:1056080080B485B000AF78607B681B699B69FB60DC
:105618007B681B69DB69FA681340FB60FB684FEA2B
:1056280003434FEA1343184607F11407BD4680BCED
:10563800704700BF80B487B000AF78604FF00003B8
:105648003B61FB7C43F0C003FB74BB7C4FF0010261
:1056580062F3C403BB743B7C4FF0180262F3060389
:105668003B747B685B6D3A691A617B68DB78012B58
:1056780017D14FF00003FB607B685B6D7A6802F519
:10568800B9625A617B685B6D1B68FB60FB6843F01D
:105698000043FB604FF08023FB607B685B6DFA681A
:1056A8001A6007F11C07BD4680BC704780B485B0FE
:1056B80000AF78607B689B7A002B1BD07B681B69E6
:1056C8009B68FB603B7B03F00103DBB2002B11D02E
:1056D8007B6803F586731B68BB60BB686FF3410387
:1056E800BB60BB686FF30003BB607B68D3F80C3109
:1056F800BA681A6007F11407BD4680BC704700BF3E
:1057080080B584B000AF7860F9703A80BB70FB78E0
:105718005BB2002B0EDAFB7803F07F0213464FEAE8
:1057280083039B184FEAC30303F58C737A68D31875
:10573800FB600DE0FB7803F07F0213464FEA83031A
:105748009B184FEAC30303F55C737A68D318FB60B0
:10575800FB7803F07F03DAB2FB681A70FB784FEA34
:10576800D313DBB21A46FB685A703A88FB689A6012
:10577800FB68BA78DA70FB685B78002B04D0FB68AA
:105788001B781A46FB68DA80BB78022B03D1FB68CA
:105798004FF000021A717868F968FFF78BFB4FF039
:1057A8000003184607F11007BD4680BD80B586B0D6
:1057B80000AFF8607A600A46FA723B81FB7A03F020
:1057C8007F0213464FEA83039B184FEAC30303F58E
:1057D8005C73FA68D3187B617B697A68DA603A8906
:1057E8007B695A617B694FF000029A617B694FF0CF
:1057F80000025A70FB7A03F07F03DAB27B691A70F1
:10580800FB68DB78012B02D17A687B691A617B69B6
:105818001B78002B04D1F8687969FFF72FFD03E0A6
:10582800F8687969FFF7C2FB4FF00003184607F1E3
:105838001807BD4680BD00BF80B586B000AFF860D0
:105848007A603B600B46FB72FB7A03F07F021346DB
:105858004FEA83039B184FEAC30303F58C73FA6876
:10586800D3187B617B694FF001025A70FB7A03F011
:105878007F03DAB27B691A707B697A68DA607A68C2
:105888007B691A617B694FF000029A617B693A680B
:105898005A617B691B78002B04D1F8687969FFF796
:1058A800EDFC03E0F8687969FFF780FB4FF000032F
:1058B800184607F11807BD4680BD00BF80B584B003
:1058C80000AF78600B46FB70FB785BB2002B0EDAFA
:1058D800FB7803F07F0213464FEA83039B184FEAD5
:1058E800C30303F58C737A68D318FB600BE0FA786E
:1058F80013464FEA83039B184FEAC30303F55C730F
:105908007A68D318FB60FB684FF001029A70FB7845
:1059180003F07F03DAB2FB681A70FB784FEAD313FF
:10592800DBB21A46FB685A707868F968FFF7A6FD7B
:105938004FF00003184607F11007BD4680BD00BFB1
:1059480080B584B000AF78600B46FB70FB785BB223
:10595800002B0EDAFB7803F07F0213464FEA83032D
:105968009B184FEAC30303F58C737A68D318FB605E
:105978000BE0FA7813464FEA83039B184FEAC303F8
:1059880003F55C737A68D318FB60FB684FF000027C
:105998009A70FB7803F07F03DAB2FB681A70FB7821
:1059A8004FEAD313DBB21A46FB685A707868F96875
:1059B800FFF7AEFD4FF00003184607F11007BD468C
:1059C80080BD00BF80B485B000AF78600B46FB7027
:1059D8004FF00003FB60FB7803F07F03DAB2FB684B
:1059E80062F30A13FB607B681B697A6812691168A5
:1059F800FA680A431A6007F11407BD4680BC70476D
:105A080080B586B000AF78604FF000037B6178689E
:105A1800FFF7BEF90346002B00F09E807868FFF779
:105A2800C9F903463B613B69002B02D14FF00003E3
:105A380093E0BB7C03F00803DBB2002B06D0786848
:105A480000F044FA03467A6913437B61BB7C03F098
:105A58000403DBB2002B06D0786800F021F9034676
:105A68007A6913437B613B7C03F00203DBB2002BB2
:105A78000AD04FF00003FB60FB6843F00203FB60B1
:105A88007B68DB68FA685A61FB7C23F07F03DBB232
:105A9800002B06D0786800F065F803467A6913434E
:105AA8007B617B7C03F00803DBB2002B06D07868AF
:105AB80000F09EF803467A6913437B613B7C03F050
:105AC8000803DBB2002B06D0786800F0D7FA03464B
