:020000040800F2
:1000000020340020B9030008B50200083539000883
:10001000B9020008BB020008BD0200080000000091
:100020000000000000000000000000006928000837
:10003000C10200080000000095290008E529000819
:10004000C7020008C9020008CB020008CD02000860
:10005000CF020008D1020008D3020008D502000830
:10006000D7020008D9020008DB020008DD02000800
:10007000DF020008E1020008E3020008E5020008D0
:10008000E7020008E9020008EB020008ED020008A0
:10009000EF020008F1020008F3020008F502000870
:1000A000F7020008F9020008FB020008FD02000840
:1000B000FF0200080103000803030008050300080D
:1000C00007030008090300080B0300080D030008DC
:1000D0000F03000811030008193B0008150300086E
:1000E00017030008190300083D3900081D03000824
:1000F0001F0300082103000823030008250300084C
:1001000027030008290300082B0300082D0300081B
:100110002F030008310300083303000835030008EB
:1001200037030008390300083B0300083D030008BB
:100130003F0300084103000843030008450300088B
:1001400047030008490300084B03000881390008F1
:100150004F0300085103000853030008550300082B
:1001600057030008590300085B0300085D030008FB
:100170005F030008610300086303000865030008CB
:08018000670300086903000891
:100188002F49072291438D462E492F480A1A06D037
:100198000722914381F30988022282F314882B48AD
:1001A8002B492C4A00F039F82B482C492C4A00F0EE
:1001B80034F82C482C492D4A00F02FF82C482D49AA
:1001C8002D4A00F02AF82D482D492E4A00F025F82E
:1001D8002D482E492E4A00F020F82E482E4900229C
:1001E80000F026F82D482E49091A082903DB0022B9
:1001F8000260043001601F481F49884205D0026828
:10020800043003B4904703BCF7E700208646EC4669
:1002180000200021234A9047FEE7884207D0521A5F
:1002280005D0037801300B700131013AF9D17047DC
:10023800884202D002700130FAE770471A487047C6
:1002480020340020203400202034002018BE00086C
:100258000000002054010020C8030008C80300085B
:1002680008B8000818BE00080000002000000020A0
:1002780008B8000808B8000808B8000808B8000856
:1002880008B8000808B8000808B8000808B8000846
:1002980018BE0008540100209E320020A032002021
:1002A80020330020BD080008FFFFFFFFFEE7FEE740
:1002B800FEE7FEE7FEE7FEE7FEE7FEE7FEE7FEE70E
:1002C800FEE7FEE7FEE7FEE7FEE7FEE7FEE7FEE7FE
:1002D800FEE7FEE7FEE7FEE7FEE7FEE7FEE7FEE7EE
:1002E800FEE7FEE7FEE7FEE7FEE7FEE7FEE7FEE7DE
:1002F800FEE7FEE7FEE7FEE7FEE7FEE7FEE7FEE7CE
:10030800FEE7FEE7FEE7FEE7FEE7FEE7FEE7FEE7BD
:10031800FEE7FEE7FEE7FEE7FEE7FEE7FEE7FEE7AD
:10032800FEE7FEE7FEE7FEE7FEE7FEE7FEE7FEE79D
:10033800FEE7FEE7FEE7FEE7FEE7FEE7FEE7FEE78D
:10034800FEE7FEE7FEE7FEE7FEE7FEE7FEE7FEE77D
:10035800FEE7FEE7FEE7FEE7FEE7FEE7FEE7FEE76D
:10036800FEE71448854602F087FC4EF68850CEF228
:100378000000016851F47001016000BF00BF00BFB8
:10038800F1EE100A50F04070E1EE100A4FF0000054
:1003980080F314884EF63C71CEF20001086850F0E4
:1003A80040700860044805490160FFF7E9BE7047DE
:1003B800FEE700000000022008ED00E00000000851
:1003C80080B5A4B002AF78604FF00003C7F8803062
:1003D8004FF00003FB674FF00003BB674FF00003CB
:1003E800C7F8843040F29403C2F20003009342F24B
:1003F8005430C2F200004FF0010140F26002C2F234
:10040800000240F2F803C2F2000305F0D9FA4BF6F5
:100418000800C0F6000003F067F84FF0030003F08F
:10042800DBF942F64413C2F200031A6807F16403C9
:10043800104619464FF02D024FF0000300F096FDCC
:10044800786742F23C33C2F200031B68184640F258
:100458005411C2F200014FF02D024FF0000300F0DA
:1004680085FD38674FF0030003F0D0F97B6F012B4F
:1004780048D17B6E9BB21BB24BF63000C0F6000031
:10048800194603F041F8BB6E9BB21BB24BF6400015
:10049800C0F60000194603F037F8FB6E9BB21BB29A
:1004A8004BF65000C0F60000194603F02DF807F18E
:1004B8001C0318464FF000014FF01B0209F050FBD7
:1004C8007B6E184600F0DEFAC7F88000BB6E18464F
:1004D80000F0D8FAF867FB6E184600F0D3FAB86750
:1004E80007F11C03FA6F0092BA6F019218464FF099
:1004F8001A014BF66002C0F60002D7F8803009F006
:10050800A5FA05E04BF67000C0F6000002F0ECFF1B
:1005180007F11C03184604F0EDFC3B6F012B60D17A
:1005280040F25413C2F200031B689BB21BB24BF695
:100538009800C0F60000194602F0E6FF40F2541396
:10054800C2F200035B689BB21BB24BF6A400C0F674
:100558000000194602F0D8FF40F25413C2F200031B
:100568009B689BB21BB24BF6B000C0F60000194660
:1005780002F0CAFF07F1540318464FF000014FF08C
:100588001B0209F0EDFA40F25413C2F200031B6893
:10059800184600F077FAC7F8800040F25413C2F208
:1005A80000035B68184600F06DFAF86740F25413D0
:1005B800C2F200039B68184600F064FAB86707F1B6
:1005C8005403FA6F0092BA6F019218464FF01B015C
:1005D8004BF6BC02C0F60002D7F8803009F036FAB4
:1005E80005E04BF6CC00C0F6000002F07DFF07F1F5
:1005F8005403184604F07EFC4BF6F400C0F60000E5
:10060800D7F884100BF070F8D7F8843003F10103A1
:10061800C7F8843001E700BF80B59EB000AF7860AE
:100628004FF0000387F873304FF0000387F87230FB
:100638004FF0000387F871304FF0000387F87030EF
:100648004FF00003FB604FF000033B614FF00003E5
:100658007B614FF00003FB664BF61010C0F60000FC
:1006680002F042FF4FF4A840C4F2000002F0EEFC92
:100678004FF4A840C4F2000002F05AFF4FF4A8401B
:10068800C4F200004FF0D1014FF0000202F072FFF7
:10069800034687F8703097F870309BB21BB24BF660
:1006A8003410C0F60000194602F02EFF4FF4A8409F
:1006B800C4F200004FF000014FF0A60202F0E8FC7F
:1006C800034687F873304FF4A840C4F200004FF097
:1006D80000014FF0A60202F091FD97F873309BB22B
:1006E8001BB24BF64810C0F60000194602F00CFF8A
:1006F80007F1300318464FF000014FF0030209F0EC
:100708002FFA07F1580318464FF000014FF0060280
:1007180009F026FA07F1240318464FF000014FF0BC
:10072800030209F01DFA07F1480318464FF00001CB
:100738004FF0060209F014FA07F1180318464FF0B3
:1007480000014FF0030209F00BFA07F150031846B5
:100758004FF000014FF0060209F002FA07F15803C2
:100768004FF4A840C4F200004FF0A6011A464FF01B
:10077800060302F0D5FC07F150034FF4A840C4F279
:1007880000004FF0D1011A464FF0060302F03EFF79
:100798004FF000037B673FE07B6F4FEA430307F1AD
:1007A8007801CB1813F8203C1A467B6F4FEA4303B5
:1007B80003F1010307F17801CB1813F8203C4FEA45
:1007C8000323D2187B6F4FEA830307F17801CB1814
:1007D80043F8482C7B6F4FEA430307F17802D3189C
:1007E80013F8283C1A467B6F4FEA430303F10103D1
:1007F80007F17801CB1813F8283C4FEA0323D218E5
:100808007B6F4FEA830307F17801CB1843F8602C1C
:100818007B6F03F101037B677B6F022BBCDD4FF419
:10082800A840C4F200004FF0D10102F049FF87ED63
:100838001B0AF86E08F00AFC02460B464BF66410D9
:10084800C0F600000AF050FF42F64413C2F200035B
:100858001A6807F13003104619464FF003024FF0AB
:10086800000300F081FAB866BB6E012B05D04BF689
:100878007810C0F6000002F037FE42F23C33C2F2B4
:1008880000031A6807F11803104619464FF00302CF
:100898004FF0000300F068FA78667B6E012B05D0F4
:1008A8004BF69C10C0F6000002F01EFE02F028F87D
:1008B8001EE700BF80B586B004AF4FF00C037B6025
:1008C80002F0DAF902F01AFA40F20C03C2F200035D
:1008D8001A684DF68363C4F21B33A3FB02134FEA75
:1008E80093434BF6C010C0F6000019460AF0FCFE10
:1008F80002F0D6FD02F0E2FC4BF6E810C0F600006C
:100908000AF0F2FE4BF60420C0F6000002F0ECFDFF
:100918007B684FF0030019464FF0000200F0E0F941
:10092800024642F64413C2F200031A6042F6441328
:10093800C2F200031B68002B05D14BF62020C0F63D
:10094800000002F0D1FD4BF66820C0F6000002F06E
:10095800CBFD7B684FF0030019464FF0000200F012
:10096800BFF9024642F23833C2F200031A6042F27B
:100978003833C2F200031B68002B05D14BF68820E0
:10098800C0F6000002F0B0FD4BF6C820C0F600002B
:1009980002F0AAFD7B684FF0030019464FF00002F1
:1009A80000F09EF9024642F23C33C2F200031A609C
:1009B80042F23C33C2F200031B68002B05D14BF610
:1009C800E420C0F6000002F08FFD4BF62430C0F69C
:1009D800000002F089FD4FF0020300934FF000037E
:1009E80001934FF0000302934FF00003039340F28A
:1009F8002160C0F600004BF63C31C0F600014FF410
:100A080080724FF0000300F0C1FC4FF00103009327
:100A18004FF0000301934FF0000302934FF00003DF
:100A2800039340F2C930C0F600004BF64831C0F6D7
:100A380000014FF080024FF0000300F0A7FC4FF0D8
:100A4800010300934FF0000301934FF0000302935A
:100A58004FF00003039343F26940C0F600004BF6E1
:100A68005831C0F600014FF080024FF0000300F04B
:100A78008DFC4BF66030C0F600000AF035FE00F041
:100A88009BFDFEE780B483B000AF78607B6803F419
:100A98000043002B03D07B68A3F580337B607B6821
:100AA800184607F10C07BD4680BC704780B483B078
:100AB80000AF78607B6803F108027B685A607B6846
:100AC8004FF0FF329A607B6803F108027B68DA60B6
:100AD8007B6803F108027B681A617B684FF00002AB
:100AE8001A6007F10C07BD4680BC704780B483B01C
:100AF80000AF78607B684FF000021A6107F10C07BD
:100B0800BD4680BC704700BF80B485B000AF786038
:100B180039607B685B68FB60FB685A683B685A60B1
:100B28007B685A683B689A60FB685B683A689A60B9
:100B3800FB683A685A607B683A685A603B687A682A
:100B48001A617B681B6803F101027B681A6007F170
:100B58001407BD4680BC704780B485B000AF78608C
:100B680039603B681B68BB60BB68B3F1FF3F03D1CA
:100B78007B681B69FB600DE07B6803F10803FB6081
:100B880002E0FB685B68FB60FB685B681A68BB682F
:100B98009A42F6D9FB685A683B685A603B685B68BA
:100BA8003A689A603B68FA689A60FB683A685A60E3
:100BB8003B687A681A617B681B6803F101027B68ED
:100BC8001A6007F11407BD4680BC704780B485B031
:100BD80000AF78607B685B687A6892689A607B6827
:100BE8009B687A6852685A607B681B69FB60FB687F
:100BF8005A687B689A4203D17B689A68FB685A6096
:100C08007B684FF000021A61FB681B6803F1FF3232
:100C1800FB681A60FB681B68184607F11407BD4695
:100C280080BC704780B582B000AF786039607B685F
:100C3800002B02D101F09CFEFEE701F06DFE7B68FF
:100C48001A687B68DB6B7968096C01FB03F3D218BF
:100C58007B685A607B684FF000029A637B681A6869
:100C68007B689A607B681A687B68DB6B03F1FF33EB
:100C78007968096C01FB03F3D2187B68DA607B683A
:100C88004FF0FF325A647B684FF0FF329A643B683A
:100C9800002B0FD17B681B69002B17D07B6803F1F1
:100CA8001003184600F066FF0346012B0ED101F031
:100CB80027FE0BE07B6803F110031846FFF7F6FEEA
:100CC8007B6803F124031846FFF7F0FE01F036FEB7
:100CD8004FF00103184607F10807BD4680BD00BF65
:100CE80080B588B000AFF860B9601346FB714FF06B
:100CF8000003FB61FB68002B29D04FF04C0001F08A
:100D08009FFEB861BB69002B21D0FB68BA6802FB63
:100D180003F303F101037B61786901F091FE024658
:100D2800BB691A60BB691B68002B0DD0BB69FA68E8
:100D3800DA63BB69BA681A64B8694FF00101FFF752
:100D480071FFBB69FB6102E0B86901F051FFFB6903
:100D5800002B02D101F00CFEFEE7FB69184607F1F3
:100D68002007BD4680BD00BF80B588B000AFF860E1
:100D7800B9607A603B604FF00003FB61FB68002BB1
:100D880002D101F0F5FDFEE7BB68002B03D1FB683B
:100D98001B6C002B02D14FF0010301E04FF0000360
:100DA800002B03D101F0E4FDFEE700BF01F0B4FD24
:100DB800FB689A6BFB68DB6B9A4218D2F868B968D3
:100DC8003A6800F0ADF9FB685B6A002B0AD0FB6853
:100DD80003F12403184600F0CDFE0346012B01D190
:100DE80001F08EFD01F0AAFD4FF001035DE07B6884
:100DF800002B04D101F0A2FD4FF0000355E0FB6980
:100E0800002B07D107F11403184600F01BFF4FF021
:100E18000103FB6101F092FD00F012FC01F07CFD82
:100E2800FB685B6CB3F1FF3F03D1FB684FF0000236
:100E38005A64FB689B6CB3F1FF3F03D1FB684FF02A
:100E480000029A6401F07AFD07F1140207F1040325
:100E58001046194600F012FF0346002B1ED1F86811
:100E680000F04EFA0346002B12D0FB6803F1100283
:100E78007B681046194600F00BFEF86800F0DAF9B6
:100E880000F0F0FB0346002B8FD101F039FD8CE711
:100E9800F86800F0CFF900F0E5FB86E7F86800F0A5
:100EA800C9F900F0DFFB4FF00003184607F12007EF
:100EB800BD4680BD80B586B000AFF860B9607A6085
:100EC8003B60FB68002B02D101F052FDFEE7BB68D6
:100ED800002B03D1FB681B6C002B02D14FF00103E0
:100EE80001E04FF00003002B02D101F041FDFEE7C5
:100EF80001F03EFD3861FB689A6BFB68DB6B9A4238
:100F080028D2F868B9683A6800F00AF9FB689B6C5F
:100F1800B3F1FF3F14D1FB685B6A002B16D0FB6866
:100F280003F12403184600F025FE0346002B0DD0DC
:100F38007B68002B0AD07B684FF001021A6005E03D
:100F4800FB689B6C03F10102FB689A644FF0010394
:100F58007B6102E04FF000037B61386901F012FD0C
:100F68007B69184607F11807BD4680BD80B588B073
:100F780000AFF860B9607A603B604FF00003FB6136
:100F8800FB68002B02D101F0F3FCFEE7BB68002BE5
:100F980003D1FB681B6C002B02D14FF0010301E069
:100FA8004FF00003002B03D101F0E2FCFEE700BF85
:100FB80001F0B2FCFB689B6B002B3FD0FB68DB6841
:100FC800BB61F868B96800F00DF93B68002B1ED1C9
:100FD800FB689B6B03F1FF32FB689A63FB681B6835
:100FE800002B04D101F030F80246FB685A60FB6818
:100FF8001B69002B1DD0FB6803F11003184600F095
:10100800B9FD0346012B14D101F07AFC11E0FB680D
:10101800BA69DA60FB685B6A002B0AD0FB6803F1E7
:101028002403184600F0A6FD0346002B01D001F06A
:1010380067FC01F083FC4FF001036BE07B68002B39
:1010480004D101F07BFC4FF0000363E0FB69002B47
:1010580007D107F11003184600F0F4FD4FF0010323
:10106800FB6101F06BFC00F0EBFA01F055FCFB684A
:101078005B6CB3F1FF3F03D1FB684FF000025A6489
:10108800FB689B6CB3F1FF3F03D1FB684FF0000294
:101098009A6401F053FC07F1100207F104031046AB
:1010A800194600F0EBFD0346002B2CD1F86800F040
:1010B80011F90346002B20D0FB681B68002B08D1D0
:1010C80001F02AFCFB685B68184600F0F1FF01F0AC
:1010D80035FCFB6803F124027B681046194600F0D2
:1010E800D7FCF86800F0A6F800F0BCFA0346002B1D
:1010F8007FF45DAF01F004FC59E7F86800F09AF856
:1011080000F0B0FA53E7F86800F094F800F0AAFA93
:101118004FF00003184607F12007BD4680BD00BF09
:1011280080B584B000AFF860B9607A60FB681B6C6A
:10113800002B0DD1FB681B68002B48D1FB685B684E
:10114800184601F023F8FB684FF000025A603EE0B1
:101158007B68002B1AD1FB689A68FB681B6C1046E9
:10116800B9681A4608F0D8FCFB689A68FB681B6CDB
:10117800D218FB689A60FB689A68FB685B689A42B9
:1011880025D3FB681A68FB689A6020E0FB68DA6878
:10119800FB681B6C1046B9681A4608F0BDFCFB6872
:1011A800DA68FB681B6CC3F10003D218FB68DA60CD
:1011B800FB68DA68FB681B689A4208D2FB685A68C1
:1011C800FB681B6CC3F10003D218FB68DA60FB688C
:1011D8009B6B03F10102FB689A6307F11007BD4698
:1011E80080BD00BF80B582B000AF786039607B6891
:1011F8001B68002B19D07B68DA687B681B6CD218D7
:101208007B68DA607B68DA687B685B689A4203D33C
:101218007B681A687B68DA607B68DA687B681B6CB5
:10122800386811461A4608F077FC07F10807BD46EA
:1012380080BD00BF80B582B000AF786001F06CFB64
:1012480014E07B685B6A002B15D07B6803F12403EC
:10125800184600F08FFC0346002B01D000F06CFD0F
:101268007B689B6C03F1FF327B689A647B689B6C9C
:10127800002BE6DC00E000BF7B684FF0FF329A6489
:1012880001F05CFB01F048FB14E07B681B69002B54
:1012980015D07B6803F11003184600F06BFC034679
:1012A800002B01D000F048FD7B685B6C03F1FF3236
:1012B8007B685A647B685B6C002BE6DC00E000BF4F
:1012C8007B684FF0FF325A6401F038FB07F10807DA
:1012D800BD4680BD80B584B000AF786001F01CFBCE
:1012E8007B689B6B002B14BF00230123DBB2FB60E0
:1012F80001F024FBFB68184607F11007BD4680BDC6
:1013080080B584B000AF786001F006FB7B689A6B0B
:101318007B68DB6B9A4214BF00230123DBB2FB60BE
:1013280001F00CFBFB68184607F11007BD4680BDAD
:1013380080B582B000AF7860396001F0EDFA7B6863
:101348005B6CB3F1FF3F03D17B684FF000025A6436
:101358007B689B6CB3F1FF3F03D17B684FF00002C1
:101368009A6401F0EBFA7B689B6B002B06D17B68D3
:1013780003F124031846396800F0CCFB7868FFF7BE
:1013880059FF07F10807BD4680BD00BF80B58AB088
:1013980002AFF860B9603B601346FB80FB68002B26
:1013A80002D101F0E5FAFEE7BB6A042B02D901F08D
:1013B800DFFAFEE7FB881846396B00F0FDFDB861DF
:1013C800BB69002B00F0AC80BB691A6BFB8803F18A
:1013D800FF334FEA8303D3187B617B6923F007034C
:1013E8007B617B6903F00703002B02D001F0C0FA90
:1013F800FEE7FB880093B869B968BA6A7B6B00F0AE
:10140800B9FC7869F9683A6801F0F2F90246BB69F3
:101418001A60FB6A002B02D0FB6ABA691A6001F0F5
:101428007BFA40F23823C2F200031B6803F1010281
:1014380040F23823C2F200031A6040F26013C2F28D
:1014480000031B68002B0FD140F26013C2F20003A7
:10145800BA691A6040F23823C2F200031B68012BF4
:1014680018D100F0C3FC15E040F24823C2F2000393
:101478001B68002B0ED140F26013C2F200031B68F8
:10148800DA6ABB6A9A4205D840F26013C2F20003D6
:10149800BA691A60BB69DA6A40F24023C2F20003F3
:1014A8001B689A4206D9BB69DA6A40F24023C2F245
:1014B80000031A6040F25C23C2F200031B6803F1C8
:1014C800010240F25C23C2F200031A60BB69DA6AC7
:1014D80040F24423C2F200031B689A4206D9BB6952
:1014E800DA6A40F24423C2F200031A60BB69DA6A7E
:1014F80013464FEA83039B184FEA830340F26412B2
:10150800C2F200029A18BB6903F104031046194697
:10151800FFF7FAFA4FF00103FB6101F00FFA02E05E
:101528004FF0FF33FB61FB69012B11D140F24823D7
:10153800C2F200031B68002B0AD040F26013C2F20B
:1015480000031B68DA6ABB6A9A4201D201F0D8F933
:10155800FB69184607F12007BD4680BD80B584B0F9
:1015680000AF78604FF00003FB607B68002B19D058
:1015780000F066F840F23C23C2F200031A687B6868
:10158800D318BB6040F26013C2F200031B6803F17A
:1015980004031846FFF71AFBB86800F0C7FC00F010
:1015A80061F8F860FB68002B01D101F0A9F907F197
:1015B8001007BD4680BD00BF80B586B004AF4FF0B0
:1015C800000300934FF0000301934FF000030293D0
:1015D8004FF00003039341F65950C0F600004BF654
:1015E8007C31C0F600014FF480724FF00003FFF722
:1015F800CDFE78607B68012B02D100F00FFE786089
:101608007B68012B11D101F0B3F940F24823C2F2F3
:1016180000034FF001021A6040F23C23C2F20003BB
:101628004FF000021A6001F033F97B68002B02D1F9
:1016380001F09EF9FEE707F10807BD4680BD00BF2F
:1016480080B400AF40F24C23C2F200031B6803F1E0
:10165800010240F24C23C2F200031A60BD4680BC6E
:10166800704700BF90B583B000AF4FF000037B60B8
:1016780040F24C23C2F200031B68002B02D101F098
:1016880077F9FEE701F048F940F24C23C2F2000373
:101698001B6803F1FF3240F24C23C2F200031A60C8
:1016A80040F24C23C2F200031B68002B40F08480F8
:1016B80040F23823C2F200031B68002B7CD04FF0A5
:1016C80000033B603BE040F2F813C2F20003DB6822
:1016D800DC6804F118031846FFF778FA04F10403EC
:1016E8001846FFF773FAE26A40F24423C2F2000395
:1016F8001B689A4205D9E26A40F24423C2F2000309
:101708001A60E26A13464FEA83039B184FEA830381
:1017180040F26412C2F200029A1804F1040310465F
:101728001946FFF7F1F9E26A40F26013C2F20003CA
:101738001B68DB6A9A4202D34FF001033B6040F218
:10174800F813C2F200031B68002BBCD140F25023EF
:10175800C2F200031B68002B18D00DE000F048F817
:1017680040F25023C2F200031B6803F1FF3240F23B
:101778005023C2F200031A6040F25023C2F2000361
:101788001B68002BEAD14FF001033B603B68012B3B
:1017980006D040F25423C2F200031B68012B0BD180
:1017A8004FF001037B6040F25423C2F200034FF074
:1017B80000021A6001F0A4F801F0C0F87B6818462E
:1017C80007F10C07BD4690BD80B582B000AF01F0AF
:1017D800A3F840F23C23C2F200031B687B6001F0CF
:1017E800ADF87B68184607F10807BD4680BD00BF05
:1017F80080B584B000AF40F24C23C2F200031B68EE
:10180800002B40F0CA8040F23C23C2F200031B6860
:1018180003F1010240F23C23C2F200031A6040F2D5
:101828003C23C2F200031B68002B4BD140F2F0139B
:10183800C2F200031B681B68002B02D001F098F865
:10184800FEE740F2F013C2F200031B68FB6040F2AF
:10185800F413C2F200031A6840F2F013C2F2000354
:101868001A6040F2F413C2F20003FA681A6040F2F8
:101878005823C2F200031B6803F1010240F2582307
:10188800C2F200031A6040F2F013C2F200031B68B0
:101898001B68002B07D140F20003C2F200034FF08F
:1018A800FF321A600EE040F2F013C2F200031B6828
:1018B800DB68DB68BB60BB685A6840F20003C2F2B1
:1018C80000031A6040F23C23C2F200031A6840F297
:1018D8000003C2F200031B689A426AD340F2F01375
:1018E800C2F200031B681B68002B07D140F20003FB
:1018F800C2F200034FF0FF321A605AE040F2F013D0
:10190800C2F200031B68DB68DB68BB60BB685B680E
:101918007B6040F23C23C2F200031A687B689A425B
:1019280006D240F20003C2F200037A681A6040E06F
:10193800BB6803F104031846FFF748F9BB689B6AC4
:10194800002B05D0BB6803F118031846FFF73EF9D2
:10195800BB68DA6A40F24423C2F200031B689A4269
:1019680006D9BB68DA6A40F24423C2F200031A605F
:10197800BB68DA6A13464FEA83039B184FEA83036E
:1019880040F26412C2F200029A18BB6803F1040321
:1019980010461946FFF7B8F8A0E740F25023C2F204
:1019A80000031B6803F1010240F25023C2F2000356
:1019B8001A6007F11007BD4680BD00BF80B582B030
:1019C80000AF40F24C23C2F200031B68002B1DD06D
:1019D80040F25423C2F200034FF001021A6052E0B1
:1019E80040F24423C2F200031B68002B02D100F02E
:1019F800BFFFFEE740F24423C2F200031B6803F175
:101A0800FF3240F24423C2F200031A6040F244233A
:101A1800C2F20003196840F26412C2F200020B46D7
:101A28004FEA83035B184FEA8303D3181B68002B24
:101A3800D6D040F24423C2F200031A6813464FEA94
:101A480083039B184FEA830340F26412C2F2000238
:101A58009B187B607B685B685A687B685A607B6808
:101A68005A687B6803F108039A4204D17B685B6873
:101A78005A687B685A607B685B68DA6840F2601372
:101A8800C2F200031A6007F10807BD4680BD00BF17
:101A980080B584B000AF786039607B68002B02D1D4
:101AA80000F066FFFEE740F26013C2F200031B6815
:101AB80003F1180378681946FFF74EF840F26013EF
:101AC800C2F200031B6803F104031846FFF77EF80F
:101AD8003B68B3F1FF3F0ED140F26013C2F200033E
:101AE8001B6803F1040340F22420C2F200001946E7
:101AF800FFF70AF80AE040F23C23C2F200031A6832
:101B08003B68D318FB60F86800F010FA07F110077B
:101B1800BD4680BD80B584B000AF786039607B6811
:101B2800002B02D100F024FFFEE740F26013C2F25E
:101B380000031B6803F1180378681946FEF7E4FFF1
:101B480040F26013C2F200031B6803F10403184655
:101B5800FFF73CF840F23C23C2F200031A683B68E6
:101B6800D318FB60F86800F0E1F907F11007BD46EB
:101B780080BD00BF80B584B000AF78607B68DB684B
:101B8800DB68BB60BB68002B02D100F0F1FEFEE70A
:101B9800BB6803F118031846FFF718F840F24C2306
:101BA800C2F200031B68002B2AD1BB6803F10403AF
:101BB8001846FFF70BF8BB68DA6A40F24423C2F212
:101BC80000031B689A4206D9BB68DA6A40F24423CC
:101BD800C2F200031A60BB68DA6A13464FEA83034D
:101BE8009B184FEA830340F26412C2F200029A186B
:101BF800BB6803F1040310461946FEF785FF09E0A8
:101C0800BB6803F1180340F2F810C2F2000019464D
:101C1800FEF77AFFBB68DA6A40F26013C2F200038B
:101C28001B68DB6A9A4203D34FF00103FB6002E0B2
:101C38004FF00003FB60FB68184607F11007BD462C
:101C480080BD00BF80B582B000AF78607B68002B94
:101C580002D100F08DFEFEE740F25823C2F20003E5
:101C68001A687B681A6040F23C23C2F200031A68C3
:101C78007B685A6007F10807BD4680BD80B584B00F
:101C880000AF786039607B68002B02D100F070FEED
:101C9800FEE73B68002B02D100F06AFEFEE700F089
:101CA8003BFE3B681B68B3F1FF3F03D14FF00003D5
:101CB800FB6038E07B681A6840F25823C2F20003E0
:101CC8001B689A420CD07B685A6840F23C23C2F2E7
:101CD80000031B689A4203D84FF00103FB6022E01F
:101CE80040F23C23C2F200031A687B685B68D21A90
:101CF8003B681B689A4213D23B681A687B6859682C
:101D080040F23C23C2F200031B68CB1AD2183B688E
:101D18001A607868FFF796FF4FF00003FB6002E057
:101D28004FF00103FB6000F009FEFB68184607F15D
:101D38001007BD4680BD00BF80B400AF40F25423F9
:101D4800C2F200034FF001021A60BD4680BC704722
:101D580080B582B000AF786000E000BF00F098F86E
:101D680040F26413C2F200031B68012BF5D900F09E
:101D7800C7FDF2E780B584B000AFF860B9607A605B
:101D88003B60FB6803F134031846B9684FF0100252
:101D980007F072FEFB684FF0000283F843207B686F
:101DA800042B02D94FF004037B60FB687A68DA627F
:101DB800FB687A685A64FB6803F104031846FEF767
:101DC80095FEFB6803F118031846FEF78FFEFB68C3
:101DD800FA681A617B68C3F10502FB689A61FB68BF
:101DE800FA685A6207F11007BD4680BD80B582B017
:101DF80000AF4FF000037B6012E07A6813464FEAA9
:101E080083039B184FEA830340F26412C2F2000274
:101E18009B181846FEF74AFE7B6803F101037B60B6
:101E28007B68042BE9D940F2C810C2F20000FEF723
:101E38003DFE40F2DC10C2F20000FEF737FE40F231
:101E4800F810C2F20000FEF731FE40F20C20C2F298
:101E58000000FEF72BFE40F22420C2F20000FEF73D
:101E680025FE40F2F013C2F2000340F2C812C2F29B
:101E780000021A6040F2F413C2F2000340F2DC12CE
:101E8800C2F200021A6007F10807BD4680BD00BF14
:101E980080B582B000AF3DE0FFF7D2FB40F20C23E3
:101EA800C2F200031B68002B14BF00230123DBB21E
:101EB8007B60FFF7D7FB7B68002B2BD100F02CFD54
:101EC80040F20C23C2F20003DB68DB683B603B682E
:101ED80003F104031846FEF779FE40F23823C2F2F4
:101EE80000031B6803F1FF3240F23823C2F20003FB
:101EF8001A6040F22023C2F200031B6803F1FF328C
:101F080040F22023C2F200031A6000F017FD38687F
:101F180000F08AF840F22023C2F200031B68002B6D
:101F2800BAD107F10807BD4680BD00BF80B582B0B1
:101F380000AF786040F26013C2F200031B687A6851
:101F48005A6040F23C23C2F200031B687A689A4246
:101F580010D240F2F413C2F200031A6840F2601380
:101F6800C2F200031B6803F1040310461946FEF78A
:101F7800F3FD1DE040F2F013C2F200031A6840F2CC
:101F88006013C2F200031B6803F1040310461946EC
:101F9800FEF7E2FD40F20003C2F200031B687A6814
:101FA8009A4205D240F20003C2F200037A681A602E
:101FB80007F10807BD4680BD80B584B000AF034671
:101FC8003960FB804FF0480000F03AFDF860FB688C
:101FD800002B23D03B68002B07D1FB884FEA8303F3
:101FE800184600F02DFD034600E03B68FA681363CD
:101FF800FB681B6B002B06D1F86800F0F9FD4FF069
:102008000003FB600AE0FB681A6BFB884FEA830356
:1020180010464FF0A5011A4607F0A2FDFB681846C6
:1020280007F11007BD4680BD80B582B000AF78606B
:102038007B681B6B184600F0DBFD786800F0D8FD64
:1020480007F10807BD4680BD80B483B000AF40F2F9
:102058006013C2F200031B687B607B68184607F1B7
:102068000C07BD4680BC704780B483B000AF40F217
:102078004823C2F200031B68002B03D14FF0000372
:102088007B600DE040F24C23C2F200031B68002B7A
:1020980003D14FF001037B6002E04FF002037B6045
:1020A8007B68184607F10C07BD4680BC704700BF27
:1020B80080B584B000AF78607B68FB607B68002BDC
:1020C8005FD0FB68DA6A40F26013C2F200031B6853
:1020D800DB6A9A4255D240F26013C2F200031B68D1
:1020E800DB6AC3F10502FB689A61FB685969FB6802
:1020F800DA6A13464FEA83039B184FEA830340F2D8
:102108006412C2F200029B18994232D1FB6803F1B3
:1021180004031846FEF75AFD40F26013C2F20003AA
:102128001B68DA6AFB68DA62FB68DA6A40F2442301
:10213800C2F200031B689A4206D9FB68DA6A40F2C9
:102148004423C2F200031A60FB68DA6A13464FEAB6
:1021580083039B184FEA830340F26412C2F2000221
:102168009A18FB6803F1040310461946FEF7CCFCE5
:1021780007E040F26013C2F200031B68DA6AFB68EA
:10218800DA6207F11007BD4680BD00BF80B584B094
:1021980000AF78607B68FB607B68002B39D0FB68F8
:1021A800DA6AFB685B6C9A4233D0FB6803F104037C
:1021B8001846FEF70BFDFB685A6CFB68DA62FB6891
:1021C800DB6AC3F10502FB689A61FB68DA6A40F2D0
:1021D8004423C2F200031B689A4206D9FB68DA6AF4
:1021E80040F24423C2F200031A60FB68DA6A13461D
:1021F8004FEA83039B184FEA830340F26412C2F24A
:1022080000029A18FB6803F1040310461946FEF70A
:102218007BFC07F11007BD4680BD00BF80B586B0C6
:1022280004AF4FF000037B6000F0A8FA40F290235F
:10223800C2F200031B68002B1AD04FF00203009370
:102248004FF0000301934FF0000302934FF0000397
:10225800039342F2B930C0F600004BF68431C0F661
:1022680000014FF400724FF00003FFF78FF8786019
:102278007B68002B02D100F07BFBFEE77B681846E9
:1022880007F10807BD4680BD80B588B000AFF8608B
:10229800B9607A603B604FF00003FB6140F2902325
:1022A800C2F200031B68002B3DD0BB683B617B6812
:1022B8007B61FB68BB613B68002B25D1FFF7D4FE2F
:1022C8000346012B0FD140F29023C2F200031A6893
:1022D80007F1100310461946BA6A4FF00003FEF7DB
:1022E80043FDF8611FE040F29023C2F200031A6830
:1022F80007F11003104619464FF000024FF0000393
:10230800FEF732FDF8610EE040F29023C2F20003BE
:102318001A6807F11003104619463A684FF000038F
:10232800FEF7C8FDF861FB69184607F12007BD46AE
:1023380080BD00BF80B586B002AF7860396040F2DA
:102348008823C2F200031B68DB68DB68FB60FB685C
:1023580003F104031846FEF739FCFB68DB69012B1F
:102368001ED1FB689A697B68D318F86819463A68E1
:102378007B6800F0BFF80346012B11D14FF0000332
:102388000093F8684FF000017A684FF00003FFF7F8
:102398007BFFB860BB68002B02D100F0E9FAFEE7CA
:1023A800FB685B6AF868984707F11007BD4680BD6F
:1023B80080B584B000AF786007F10803184600F0D4
:1023C80043F8F860BB68F868194600F003F800F0B5
:1023D800DBF8F1E780B584B000AF78603960FFF7CB
:1023E8002FF907F10803184600F058F8F860BB68A1
:1023F800002B21D13B68002B0AD17A68FB689A42EE
:1024080006D8FFF72FF97868F968FFF793FF17E008
:1024180040F29023C2F200031A687968FB68CB1A6D
:1024280010461946FEF784FFFFF71CF90346002BF8
:1024380005D100F065FA02E0FFF714F900E000BFEB
:1024480007F11007BD4680BD80B485B000AF786045
:1024580040F28823C2F200031B681B68002B14BFDC
:1024680000230123DBB21A467B681A607B681B686D
:10247800002B08D140F28823C2F200031B68DB68F6
:102488001B68FB6002E04FF00003FB60FB68184626
:1024980007F11407BD4680BC704700BF80B584B003
:1024A80000AF7860FFF790F9F86040F29423C2F229
:1024B80000031B68FA689A420CD240F29423C2F2D5
:1024C80000031B68184600F0E5F87B684FF001022E
:1024D8001A6003E07B684FF000021A6040F2942310
:1024E800C2F20003FA681A60FB68184607F1100781
:1024F800BD4680BD80B586B000AFF860B9607A602F
:102508003B604FF000037B61FB68BA685A60FB6868
:10251800FA681A61BA687B689A4217D87A683B6881
:10252800D21AFB689B699A4203D34FF001037B617F
:1025380024E040F28C23C2F200031A68FB6803F11E
:10254800040310461946FEF707FB17E07A683B6854
:102558009A4207D2BA683B689A4203D34FF0010304
:102568007B610BE040F28823C2F200031A68FB6823
:1025780003F1040310461946FEF7EEFA7B69184684
:1025880007F11807BD4680BD80B58AB002AF07F1D4
:1025980004031846FFF782FFF86164E03B69BB61FA
:1025A800BB69002B09D0BB695B69002B05D0BB69EF
:1025B80003F104031846FEF709FBBB68032B4FD849
:1025C80001A252F823F000BFE1250008692600089F
:1025D8003726000861260008FA68BB699B69D2188B
:1025E800FB68B8691146FA69FFF784FF0346012BB7
:1025F80038D1BB695B6AB8699847BB69DB69012B4D
:1026080030D1FA68BB699B69D3184FF00002009279
:10261800B8694FF000011A464FF00003FFF734FE87
:1026280078617B69002B1DD100F0A2F9FEE7FA68FA
:10263800BB699A61BB699B69002B02D100F098F9CC
:10264800FEE7BB699A69FB69D318B8691946FA6944
:10265800FB69FFF74FFF06E0B86900F0C9FA02E02E
:1026680000BF00E000BF40F29023C2F200031A68E6
:1026780007F10803104619464FF000024FF0000317
:10268800FEF774FC0346002B88D107F12007BD46EE
:1026980080BD00BF80B58AB002AF78604BE040F2E1
:1026A8008823C2F200031B68DB681B68FB6140F2E9
:1026B8008823C2F200031B68DB68DB68BB61BB6967
:1026C80003F104031846FEF781FABB695B6AB8692F
:1026D8009847BB69DB69012B2DD1BB699A69FB69F6
:1026E800D3187B617A69FB699A4212D9BB697A6906
:1026F8005A60BB69BA691A6140F28823C2F20003C2
:102708001A68BB6903F1040310461946FEF724FA58
:1027180011E04FF000030093B8694FF00001FA6927
:102728004FF00003FFF7B0FD38613B69002B02D181
:1027380000F01EF9FEE740F28823C2F200031B688E
:102748001B68002BABD140F28823C2F200031B6840
:10275800FB6040F28C23C2F200031A6840F288231F
:10276800C2F200031A6040F28C23C2F20003FA6836
:102778001A6007F12007BD4680BD00BF80B500AFD5
:1027880000F0CAF840F29023C2F200031B68002B45
:102798002BD140F26020C2F20000FEF787F940F228
:1027A8007420C2F20000FEF781F940F28823C2F2D9
:1027B800000340F26022C2F200021A6040F28C2349
:1027C800C2F2000340F27422C2F200021A604FF013
:1027D8000A004FF00C014FF00002FEF781FA0246A2
:1027E80040F29023C2F200031A6000F0A7F880BDFF
:1027F80080B485B000AFF860B9607A60FB68A3F177
:102808000403FB60FB684FF080721A60FB68A3F159
:102818000403FB60BA68FB681A60FB68A3F1040351
:10282800FB60FB684FF000021A60FB68A3F1140319
:10283800FB607A68FB681A60FB68A3F10403FB601D
:10284800FB686FF002021A60FB68A3F12003FB60CB
:10285800FB68184607F11407BD4680BC704700BFE7
:10286800054B19680868B0E8F04F80F309884FF005
:10287800000080F311887047600100200348006859
:10288800006880F3088862B600DF00BF08ED00E04A
:1028980080B500AF4EF62053CEF200034EF620521C
:1028A800CEF20002126842F470021A604EF620530B
:1028B800CEF200034EF62052CEF20002126842F029
:1028C80070421A6000F09CF840F20403C2F2000360
:1028D8004FF000021A6000F0A9F84EF63473CEF2F9
:1028E80000034EF63472CEF20002126842F0404203
:1028F8001A60FFF7C3FF4FF00003184680BD00BF02
:1029080080B400AF4EF60453CEF200034FF080526D
:102918001A60BD4680BC704780B500AF00F028F84B
:1029280040F20403C2F200031B6803F1010240F203
:102938000403C2F200031A6080BD00BF80B500AF77
:1029480040F20403C2F200031B6803F1FF3240F2B5
:102958000403C2F200031A6040F20403C2F2000347
:102968001B68002B03D14FF0000000F00BF880BD6E
:10297800EFF311804FF0500181F3118870474FF049
:102988000003184680F31188704700BFEFF30980F1
:10299800114B1A681EF0100F08BF20ED108A20E9AD
:1029A800F04F10602DE908404FF0500080F3118877
:1029B800FFF704F84FF0000080F31188BDE80840E5
:1029C80019680868B0E8F04F1EF0100F08BFB0ECA7
:1029D800108A80F3098870476001002080B500AF35
:1029E8004EF60453CEF200034FF080521A60FFF700
:1029F800BFFFFEF7FDFE4FF00000FFF7C3FF80BDED
:102A080080B400AF4EF21403CEF2000346F6FF1274
:102A1800C0F218021A604EF21003CEF200034FF013
:102A280007021A60BD4680BC704700BFDFF80C0083
:102A3800016841F4700101607047000088ED00E012
:102A480080B58AB000AF78604FF00003FB61FEF7F5
:102A5800F7FD42F2A823C2F200031B68002B33D112
:102A680042F29823C2F2000340F29822C2F2000216
:102A78001A6042F29823C2F200034FF000025A6033
:102A880042F2A023C2F200034FF400525A6042F20D
:102A9800A023C2F200034FF000021A6040F298230C
:102AA800C2F200037B617B694FF400525A607A6975
:102AB80042F2A023C2F20003136042F2A823C2F23A
:102AC80000034FF001021A607B68002B12D04BF60E
:102AD8008C33C0F600031B887A68D3187B607B6848
:102AE80003F00703002B05D07B6823F0070303F1ED
:102AF80008037B607B68002B72D07A6841F6FF730D
:102B08009A426DD842F29823C2F200033B6242F225
:102B18009823C2F200031B687B6204E07B6A3B6275
:102B28007B6A1B687B627B6A5A687B689A4203D21D
:102B38007B6A1B68002BF1D17A6A42F2A023C2F2A9
:102B480000039A424CD03B6A1A684BF68C33C0F6A5
:102B580000031B88D318FB617B6A1A683B6A1A60FA
:102B68007B6A5A687B68D21A4BF68C33C0F600032E
:102B78001B884FEA43039A4225D97A6A7B68D3189F
:102B88003B617B6A5A687B68D21A3B695A607B6AE8
:102B98007A685A603B695B68FB6042F29823C2F22C
:102BA8000003BB6102E0BB691B68BB61BB691B68B2
:102BB8005A68FB689A42F6D3BB691A683B691A607F
:102BC800BB693A691A6040F20803C2F200031A6846
:102BD8007B6A5B68D21A40F20803C2F200031A60EB
:102BE800FEF740FDFB69184607F12807BD4680BD82
:102BF80080B586B000AF78607B683B617B68002B4E
:102C080035D04BF68C33C0F600031B88C3F10003A4
:102C18003A69D3183B613B69FB60FEF711FDFB681D
:102C28005B68BB6042F29823C2F200037B6102E05A
:102C38007B691B687B617B691B685A68BB689A4221
:102C4800F6D37B691A68FB681A607B69FA681A60B0
:102C5800FB685A6840F20803C2F200031B68D218E6
:102C680040F20803C2F200031A60FEF7FBFC07F10A
:102C78001807BD4680BD00BF80B500AF4FF4605354
:102C8800C4F202034FF46052C4F20202126842F026
:102C980001021A604FF46053C4F202034FF00002BD
:102CA8009A604FF46053C4F202034FF46052C4F2C6
:102CB8000202126822F0847222F480321A604FF401
:102CC8006053C4F2020343F21002C2F200425A6097
:102CD8004FF46053C4F202034FF46052C4F202028C
:102CE800126822F480221A604FF46053C4F202037F
:102CF8004FF00002DA6000F0B9F880BD80B487B008
:102D080000AF4FF000033B614FF000037B614FF0D1
:102D18000203FB604FF00003BB604FF002037B60CF
:102D28004FF46053C4F202039B6803F00C033B6149
:102D38003B69042B0DD0082B15D0002B69D140F22C
:102D48000C03C2F200034FF41052C0F2F4021A60EE
:102D580069E040F20C03C2F200034FF49052C0F253
:102D68007A021A605FE04FF46053C4F202035B68B2
:102D780003F480034FEA9353BB604FF46053C4F2EB
:102D880002035B6803F03F037B60BB68002B14D031
:102D98004FF49053C0F27A037A68B3FBF2F24FF41F
:102DA8006053C4F20203596847F6C0730B404FEAF8
:102DB800931303FB02F37B6113E04FF41053C0F24B
:102DC800F4037A68B3FBF2F24FF46053C4F20203DF
:102DD800596847F6C0730B404FEA931303FB02F39D
:102DE8007B614FF46053C4F202035B6803F4403321
:102DF8004FEA134303F101034FEA4303FB607A6987
:102E0800FB68B2FBF3F240F20C03C2F200031A6053
:102E180009E040F20C03C2F200034FF41052C0F272
:102E2800F4021A6000BF4FF46053C4F202039B68B7
:102E380003F0F0034FEA131240F21003C2F200034A
:102E48009B5CDBB23B6140F20C03C2F200031A68E0
:102E58003B6922FA03F240F20C03C2F200031A6043
:102E680007F11C07BD4680BC704700BF80B483B023
:102E780000AF4FF000037B604FF000033B604FF45E
:102E88006053C4F202034FF46052C4F202021268A3
:102E980042F480321A604FF46053C4F202031B6894
:102EA80003F400333B607B6803F101037B603B68FC
:102EB800002B03D17B68B3F5A06FECD14FF46053BE
:102EC800C4F202031B6803F40033002B03D04FF055
:102ED80001033B6002E04FF000033B603B68012BBD
:102EE80040F082804FF46053C4F202034FF4605202
:102EF800C4F20202126C42F080521A644FF4E043AA
:102F0800C4F200034FF4E042C4F20002126842F433
:102F180040421A604FF46053C4F202034FF4605207
:102F2800C4F2020292689A604FF46053C4F202033A
:102F38004FF46052C4F20202926842F400429A606E
:102F48004FF46053C4F202034FF46052C4F2020219
:102F5800926842F4A0529A604FF46053C4F202039C
:102F680045F20802C0F240725A604FF46053C4F24E
:102F780002034FF46052C4F20202126842F08072F7
:102F88001A6000BF4FF46053C4F202031B6803F0D9
:102F98000073002BF6D04FF47053C4F2020340F2D2
:102FA80005621A604FF46053C4F202034FF4605292
:102FB800C4F20202926822F003029A604FF460534E
:102FC800C4F202034FF46052C4F20202926842F063
:102FD80002029A6000BF4FF46053C4F202039B6878
:102FE80003F00C03082BF6D14FF46053C4F202032C
:102FF8004FF46052C4F20202926822F400029A600E
:103008004FF46053C4F202034FF4C042C2F200020C
:10301800C3F884204FF46053C4F202034FF46052A3
:10302800C4F20202126842F080621A6000BF4FF4D4
:103038006053C4F202031B6803F00063002BF6D050
:1030480007F10C07BD4680BC704700BF80B584B04F
:1030580000AF786078684FF02D014FF0A6024FF06E
:10306800080300F0F3F878684FF02D014FF0A6023E
:1030780000F00EF80346FB7378684FF02D014FF00F
:10308800A60200F0BBF807F11007BD4680BD00BFDF
:1030980080B584B000AF786013460A46FA70BB70FA
:1030A800BB78786819464FF0000200F081F9FB7888
:1030B8007868194601F0E4F902E0786800F0C2F98E
:1030C80078684FF00401C1F2000101F02FFA0346BD
:1030D800002BF2D078684FF0A7014FF0010200F002
:1030E80067F978684FF0010101F0AAF900BF786824
:1030F8004FF04001C0F2030101F0E0F90346002B54
:10310800F5D0786801F0CCF90346FB73786800F0D5
:1031180099F9FB7B184607F11007BD4680BD00BF33
:1031280090B587B000AFF8607A600A46FA72BB7251
:10313800FB7A4FF4A840C4F200004FF038011A4659
:103148004FF0800300F082F8FB7AF86819464FF0D8
:10315800000200F02DF9F8684FF0320101F090F903
:1031680000BFF8684FF00401C1F2000101F0DEF978
:103178000346002BF5D0F86800F064F9F8684FF0C2
:10318800A7014FF0010200F013F9F8684FF00101B0
:1031980001F056F94FF000037B6116E000BFF868B4
:1031A8004FF04001C0F2030101F088F90346002BFB
:1031B800F5D07B697A68D418F86801F071F903468C
:1031C80023707B6903F101037B61BB7A03F1FF3252
:1031D8007B699A42E2DCBB7A03F1FF337A68D41840
:1031E800F8684FF037014FF0A70200F007F80346E0
:1031F800237007F11C07BD4690BD00BF80B584B0A1
:1032080000AF786013460A46FA70BB7078684FF0D2
:10321800000101F015F97B681B8B00BF78684FF03F
:103228004001C0F2030101F049F90346002BF5D033
:10323800786801F035F90346FB73786800F002F905
:10324800FB7B184607F11007BD4680BD80B582B0EC
:1032580000AF7860F970BA707B70BB7878681946EF
:103268004FF0000200F0A4F8FB787868194601F0E6
:1032780007F978684FF0010101F0E2F87B78786887
:10328800194601F0FDF800BF78684FF08401C0F2DC
:10329800070101F013F90346002BF5D0786800F018
:1032A800D1F878684FF0000101F0CAF8786800F0AA
:1032B800C9F807F10807BD4680BD00BF80B586B0D4
:1032C80000AF3B46184601F01BF84FF400104FF0D2
:1032D800010101F0A1FA4FF002004FF0010101F0E5
:1032E80047FA4FF0C0033B614FF002033B754FF0C4
:1032F8000103BB754FF002037B754FF00103FB75AB
:1033080007F110034FF48060C4F20200194600F080
:10331800AFFD4FF48060C4F202004FF006014FF099
:10332800040200F07FFE4FF48060C4F202004FF008
:1033380007014FF0040200F075FE4FF400104FF043
:10334800010101F0BDFA4FF400104FF0000101F047
:10335800B7FA4FF4A840C4F2000000F0B7FE4FF0EF
:103368000003BB804BF6FF73FB804FF000033B81EB
:103378004FF000037B814FF48043BB8148F2A06388
:10338800C0F201033B603B464FF4A840C4F2000082
:10339800194600F0DFFE4FF4A840C4F200004FF0D9
:1033A800010100F0CFFF07F11807BD4680BD00BF3F
:1033B80080B582B000AF786013460A46FA70BB70D9
:1033C80000BF78684FF4003101F0B0F80346002BD5
:1033D800F7D178684FF0010100F0D4FF00BF78689A
:1033E8004FF00101C0F2030101F068F80346002B19
:1033F800F5D0FA78BB78786811461A4601F002F8D9
:10340800BB78002B0BD100BF78684FF08201C0F267
:10341800070101F053F80346002BF5D00DE0BB7807
:10342800012B0AD100BF78684FF00201C0F20301F6
:1034380001F044F80346002BF5D007F10807BD4614
:1034480080BD00BF80B582B000AF786078684FF06B
:10345800010100F0B7FF07F10807BD4680BD00BFB6
:1034680080B582B000AF78604BF69030C0F60000AF
:1034780000F03AF84FF44060C4F202004FF40051F3
:1034880000F098FD4FF44060C4F202004FF4005180
:1034980000F0B6FD4FF03200FEF760F8F2E700BF2B
:1034A80080B582B000AF4FF008004FF0010101F085
:1034B8005FF94FF470433B604FF001033B714FF0ED
:1034C8000003BB714FF003037B714FF00003FB71E6
:1034D8003B464FF44060C4F20200194600F0C8FCB5
:1034E80007F10807BD4680BD80B582B000AF78609F
:1034F800FEF7A6F8786808F0F7F8FEF7B3F807F1D2
:103508000807BD4680BD00BF80B582B000AF7860B7
:103518000B467B80FEF794F8B7F9023078681946B5
:1035280008F0E2F8FEF79EF807F10807BD4680BDEF
:1035380080B584B000AF786078684FF016014FF01E
:10354800D1024FF01B0300F017F978684FF0D00153
:103558004FF0160200F00EF80346FB73FB7B4BF6A8
:10356800F830C0F600001946FFF7CEFF07F1100744
:10357800BD4680BD80B584B000AF786013460A466A
:10358800FA70BB70FB78786819464FF00002FFF7B5
:103598000FFFBB787868194600F072FF00BF7868A3
:1035A8004FF00401C1F2000100F0C0FF0346002BF8
:1035B800F5D07868FFF746FF78684FF0D1014FF0F3
:1035C8000102FFF7F5FE78684FF0010100F038FFBF
:1035D80000BF78684FF04001C0F2030100F06EFFB1
:1035E8000346002BF5D0786800F05AFF0346FB73BA
:1035F80078684FF0000100F023FF7868FFF722FF9A
:10360800FB7B184607F11007BD4680BD90B587B013
:1036180000AFF8607A600A46FA72BB72FB7AF86803
:1036280019464FF00002FFF7C3FEF8684FF01D017E
:1036380000F026FF00BFF8684FF00401C1F2000156
:1036480000F074FF0346002BF5D0F868FFF7FAFE88
:10365800FB7AF86819464FF00102FFF7A9FEF868EF
:103668004FF0010100F0ECFE4FF000037B6116E023
:1036780000BFF8684FF04001C0F2030100F01EFFE0
:103688000346002BF5D07B697A68D418F86800F0F7
:1036980007FF034623707B6903F101037B61BA7A54
:1036A8007B699A42E4DCF8684FF0000100F0C8FE3C
:1036B800F868FFF7C7FE07F11C07BD4690BD00BFBD
:1036C80080B586B000AF78600B46FB704FF0000302
:1036D8007B61FB78786819464FF01B02FFF74AFFB9
:1036E8000346FB74FB78786819464FF01C02FFF715
:1036F80041FF0346BB74FB7C4FEA0322BB7C1343A8
:103708007B61786905F008FC02460B4610461946AD
:1037180017A3D3E9002305F0F7FC02460B46104631
:1037280019464FF000024FF40043C4F2710305F04C
:1037380001FF02460B46104619464FF000024FF4AF
:103748000043C4F2410305F0DFFC02460B46104675
:10375800194605F097FC0346FB60FB6807EE903AB4
:10376800B0EE670A07F11807BD4680BDAFF30080C9
:103778000000000000C8C94080B582B000AF786082
:10378800F970BA707B70BB78786819464FF0000200
:10379800FFF70EFEFB787868194600F071FE78682E
:1037A8004FF0010100F04CFE7B787868194600F074
:1037B80067FE00BF78684FF08401C0F2070100F08F
:1037C8007DFE0346002BF5D07868FFF73BFE07F136
:1037D8000807BD4680BD00BF80B483B000AF034674
:1037E800FB71FA7940F22003C2F2000353F8222059
:1037F800F9794BF61443C0F6000333F811301383FC
:1038080007F10C07BD4680BC704700BF80B483B089
:1038180000AF0346FB71FA7940F22003C2F20003BD
:1038280053F82220F9794BF61443C0F6000333F815
:103838001130538307F10C07BD4680BC704700BFA9
:1038480080B588B000AF02460B46FA71BB71FA79B1
:103858004BF62043C0F6000353F8223018464FF0C9
:10386800010100F085FF4FF480404FF0010100F0A6
:10387800FDFF4FF000033B774FF00003FB77FA7929
:103888004BF61C43C0F6000333F81230BB61FA79DB
:1038980040F23003C2F2000353F8222007F1180364
:1038A8001046194600F0E4FABB79012B3AD1FA79AF
:1038B8004BF62843C0F600039A5CF9794BF62C4383
:1038C800C0F600035B5C1046194601F023F8FA794C
:1038D8004BF62443C0F6000333F812303B614FF037
:1038E80000033B754FF008037B754FF00103BB7570
:1038F80007F11003184600F00FFAFA794BF6304337
:10390800C0F600039B5C3B734FF00F037B734FF0D3
:103918000F03BB734FF00103FB7307F10C03184649
:1039280000F088F907F12007BD4680BD80B400AFDC
:10393800FEE700BF80B500AF42F25433C2F2000385
:103948009B7A002B13D04EF61053CEF200034EF69E
:103958001052CEF20002126822F006021A60FFF737
:103968008BF942F25430C2F2000004F08BFA4FF4A3
:10397800802000F06DFA80BD80B500AF42F254306F
:10398800C2F2000004F0FEFC80BD00BF80B483B02A
:1039980000AF78607B685B8803F101024FF01F037A
:1039A800C8F200031340002B05DA03F1FF3363F07C
:1039B8001F0303F101031A467B681B889A4214BF50
:1039C80000230123DBB2184607F10C07BD4680BC73
:1039D800704700BF80B483B000AF78607B685A88B6
:1039E8007B681B889A4214BF00230123DBB2184668
:1039F80007F10C07BD4680BC704700BF80B483B098
:103A080000AF78607B685B8803F120027B681B88C5
:103A1800D21A4FF01F03C8F200031340002B05DA37
:103A280003F1FF3363F01F0303F10103184607F1A5
:103A38000C07BD4680BC704780B586B000AFF86003
:103A4800B9601346FB804FF000037B611AE0FB6806
:103A58005B887A69B9688A181278F968CB181A717C
:103A6800FB685B881F2B05D0FB685B8803F10103AB
:103A78009BB201E04FF00003FA6853807B6903F1C1
:103A880001037B61F868FFF781FF0346002B03D130
:103A9800FA887B699A42DADC7B69184607F11807CD
:103AA800BD4680BD80B586B000AFF860B9601346EA
:103AB800FB804FF000037B611AE07B69BA68D3187A
:103AC800FA681288F9688A1812791A70FB681B88D4
:103AD8001F2B05D0FB681B8803F101039BB201E093
:103AE8004FF00003FA6813807B6903F101037B61DF
:103AF800F868FFF76FFF0346002B03D1FA887B694C
:103B08009A42DADC7B69184607F11807BD4680BD82
:103B180080B582B000AF4FF48840C4F2000040F294
:103B2800255100F0C7FF0346002B38D04FF48840DA
:103B3800C4F2000040F2255101F01EF84FF488400D
:103B4800C4F2000000F052FF0346DBB2FB7107F13C
:103B5800070342F2D820C2F2000019464FF00102D2
:103B6800FFF76AFF0346002B06D142F2AC23C2F2EC
:103B780000034FF001021A6042F2D820C2F200009E
:103B8800FFF73CFF03461A2B09DD4FF44060C4F2EF
:103B980002004FF040014FF0010200F019FA4FF413
:103BA8008840C4F2000040F2277100F083FF03460A
:103BB800002B27D007F1060342F2B420C2F200001E
:103BC80019464FF00102FFF76DFF0346002B08D09E
:103BD800BB794FF48840C4F20000194600F0F2FEA9
:103BE80010E04FF48840C4F2000040F227714FF013
:103BF800000200F00DFF42F2B023C2F200034FF0C2
:103C080000021A6007F10807BD4680BD80B483B082
:103C180000AF78604FF46D43CEF200037A6842F04B
:103C2800BF6242F40032DA6007F10C07BD4680BC7F
:103C3800704700BF80B485B000AF78604FF00003D4
:103C4800FB734FF00003BB734FF00F037B737B686C
:103C5800DB78002B45D04FF46D43CEF20003DB68D0
:103C68006FEA030303F4E0634FEA1323FB73FB7B60
:103C7800C3F10403BB737A7BFB7B42FA03F37B73C8
:103C88007B685B781A46BB7B02FA03F3FB737B689D
:103C98009A787B7B1340DAB2FB7B1343FB73FB7B85
:103CA8004FEA0313FB734FF46143CEF200037A68C3
:103CB80012789B18FA7B83F800234FF46143CEF205
:103CC80000037A6812784FEA5212D2B279680978FA
:103CD80001F01F014FF0010000FA01F143F8221032
:103CE80014E04FF46143CEF200037A6812784FEA89
:103CF8005212D2B27968097801F01F014FF0010021
:103D080000FA01F102F1200243F8221007F114072A
:103D1800BD4680BC704700BF80B485B000AF7860F6
:103D28004FF00003FB604FF47053C4F20103FB60D3
:103D38007B689B79002B78D04FF47053C4F2010351
:103D48004FF47052C4F2010211687A6812686FEA7F
:103D580002020A401A604FF47053C4F201034FF490
:103D68007052C4F2010251687A6812686FEA02025E
:103D78000A405A607B681B79FA68D318FB60FB68B5
:103D8800FA6811687A6812680A431A604FF4705327
:103D9800C4F201034FF47052C4F2010291687A68C8
:103DA80012686FEA02020A409A604FF47053C4F234
:103DB80001034FF47052C4F20102D1687A681268A4
:103DC8006FEA02020A40DA607B685B79102B1AD12D
:103DD8004FF47053C4F201034FF47052C4F201025D
:103DE80091687A6812680A439A604FF47053C4F273
:103DF80001034FF47052C4F20102D1687A68126864
:103E08000A43DA601FE04FF47053C4F20103FB6009
:103E18007B685B79FA68D318FB60FB68FA681168FD
:103E28007A6812680A431A600DE07B681B79FA68A1
:103E3800D318FB60FB68FA6811687A6812686FEA41
:103E480002020A401A6007F11407BD4680BC704799
:103E580080B483B000AF78604FF47053C4F20103AC
:103E68007A685A6107F10C07BD4680BC704700BFED
:103E780080B487B000AF786039604FF000037B6191
:103E88004FF000033B614FF00003FB604FF000036D
:103E98007B6186E07B694FF0010202FA03F33B6124
:103EA8003B681A683B691340FB60FA683B699A42B1
:103EB80073D17B681A687B694FEA43034FF00301AB
:103EC80001FA03F36FEA03031A407B681A607B6800
:103ED8001A683B681B7919467B694FEA430301FA64
:103EE80003F31A437B681A603B681B79012B03D0E4
:103EF8003B681B79022B34D17B689A687B694FEA4F
:103F080043034FF0030101FA03F36FEA03031A4076
:103F18007B689A607B689A683B685B7919467B691D
:103F28004FEA430301FA03F31A437B689A607B68FC
:103F38005A687B699BB24FF0010101FA03F36FEAFB
:103F480003031A407B685A607B685A683B689B7910
:103F580019467B699BB201FA03F39BB21A437B684B
:103F68005A607B68DA687B699BB24FEA43034FF07B
:103F7800030101FA03F36FEA03031A407B68DA606E
:103F88007B68DA683B68DB7919467B694FEA43034B
:103F980001FA03F31A437B68DA607B6903F10103D2
:103FA8007B617B690F2B7FF675AF07F11C07BD4658
:103FB80080BC704780B483B000AF78600B467B80CC
:103FC8007B687A885A8307F10C07BD4680BC704726
:103FD80080B483B000AF786013460A467A807B705D
:103FE8007B78002B03D07B687A881A8302E07B6891
:103FF8007A885A8307F10C07BD4680BC704700BF1A
:1040080080B483B000AF78600B467B807B685A69C8
:104018007B885A407B685A6107F10C07BD4680BC13
:10402800704700BF80B485B000AF786013460A4679
:104038007A807B704FF00003FB604FF00003BB6099
:104048007A787B8803F007034FEA830302FA03F3C5
:10405800FB607B884FEAD3039BB21A467B884FEA02
:10406800D3039BB219467B6801F1080153F821106C
:104078007B8803F007034FEA83034FF00F0000FA31
:1040880003F36FEA030319407B6802F1080243F85F
:1040980022107B884FEAD3039BB21A467B6802F151
:1040A800080253F82220FB681343BB607B884FEA61
:1040B800D3039BB21A467B6802F10802B96843F839
:1040C800221007F11407BD4680BC704780B582B046
:1040D80000AF78607A684FF4A843C4F200039A42AC
:1040E8000CD14FF400104FF0010100F0E9FB4FF440
:1040F80000104FF0000100F0E3FB26E07A684FF46F
:10410800B043C4F200039A420CD14FF480004FF040
:10411800010100F0D5FB4FF480004FF0000100F0E2
:10412800CFFB12E07A684FF4B843C4F200039A4216
:104138000BD14FF400004FF0010100F0C1FB4FF428
:1041480000004FF0000100F0BBFB07F10807BD4677
:1041580080BD00BF80B58AB000AF786039604FF08D
:104168000003FB844FF000037B844FF00403BB84FF
:104178004FF49053C0F27A03FB617B689B88FB8401
:10418800FB8C23F03F03FB8407F10C03184600F077
:1041980009FA7B69FB61FA694DF68363C4F21B3344
:1041A800A3FB02134FEA93437B84FA8C7B8C134363
:1041B800FB847B68FA8C9A807B681B889BB223F00F
:1041C80001039AB27B681A804FF00003FB843B68B6
:1041D8001A6848F2A063C0F201039A4218D83B68F3
:1041E8001B684FEA4303FA69B2FBF3F3BB84BB8C49
:1041F800032B02D84FF00403BB84FA8CBB8C134307
:10420800FB847B8C03F101039AB27B681A844BE030
:104218003B68DA884BF6FF739A420AD13B681A6802
:1042280013464FEA43039B18FA69B2FBF3F3BB84C6
:1042380010E03B681A6813464FEA83039B184FEA5D
:1042480083029B18FA69B2FBF3F3BB84BB8C43F47B
:104258008043BB84BB8C4FEA03534FEA1353002BB4
:1042680003D1BB8C43F00103BB84BA8CFB8C134392
:104278009BB26FEA43436FEA5343FB847B8C4FF452
:10428800967202FB03F244F6D353C1F2620383FB36
:1042980002134FEAA3114FEAE273CB1A9BB203F160
:1042A80001039AB27B681A847B68FA8C9A837B68CC
:1042B8001B889BB243F001039AB27B681A807B6823
:1042C8001B88FB84FB8C23F4816323F00203FB84AB
:1042D8003B689A883B685B8913439AB2FB8C13430B
:1042E800FB847B68FA8C1A803B689A893B681B8937
:1042F80013439AB27B681A8107F12807BD4680BD2F
:1043080080B483B000AF78607B6841F288321A606D
:104318007B684FF000029A807B684BF6FF72DA8068
:104328007B684FF000021A817B684FF000025A81C7
:104338007B684FF480429A8107F10C07BD4680BC28
:10434800704700BF80B483B000AF78600B46FB7045
:10435800FB78002B08D07B681B889BB243F00103D5
:104368009AB27B681A8007E07B681B889BB223F0AF
:1043780001039AB27B681A8007F10C07BD4680BC1E
:10438800704700BF80B483B000AF78600B46FB7005
:10439800FB78002B08D07B681B889BB243F48073A2
:1043A8009AB27B681A8007E07B681B889BB223F46B
:1043B80080739AB27B681A8007F10C07BD4680BCEF
:1043C800704700BF80B483B000AF78600B46FB70C5
:1043D800FB78002B08D07B681B889BB243F40073E2
:1043E8009AB27B681A8007E07B681B889BB223F42B
:1043F80000739AB27B681A8007F10C07BD4680BC2F
:10440800704700BF80B483B000AF786013460A4697
:10441800FA70BB70BB78002B04D0FB7843F0010323
:10442800FB7003E0FB7823F00103FB70FB789AB282
:104438007B681A8207F10C07BD4680BC704700BF35
:1044480080B483B000AF78600B46FB70FB78002B1C
:1044580008D07B681B889BB243F480639AB27B6860
:104468001A8007E07B681B889BB223F480639AB2AA
:104478007B681A8007F10C07BD4680BC704700BFF7
:1044880080B483B000AF78600B46FB70FB789AB2BB
:104498007B681A8207F10C07BD4680BC704700BFD5
:1044A80080B483B000AF78607B681B8A9BB2DBB2B4
:1044B800184607F10C07BD4680BC704780B487B02A
:1044C80000AF786039604FF000033B614FF00003A4
:1044D800FB604FF00003BB604FF00003FB757B6887
:1044E8009B8A9BB2FB607B681B8B9BB2BB60BB68E3
:1044F8004FEA0343BB60FA68BB68134323F07F436A
:104508003B613A693B681A403B689A4203D14FF0D5
:104518000103FB7502E04FF00003FB75FB7D1846B5
:1045280007F11C07BD4680BC704700BF80B487B048
:1045380000AF786039604FF00003FB754FF000035F
:104548003B614FF00003FB607B68FB603B684FEA10
:1045580013733B613B6823F07F433B603B69002B4F
:1045680004D0FB6803F11403FB6007E03B684FEAE3
:1045780013433B60FB6803F11803FB60FB681A6890
:104588003B681340002B03D04FF00103FB7502E09A
:104598004FF00003FB75FB7D184607F11C07BD466D
:1045A80080BC704780B489B000AF78604FF00003DA
:1045B800BB614FF000037B614FF00003FB614FF0DC
:1045C80002033B614FF00003FB604FF00203BB6046
:1045D8004FF46053C4F202039B6803F00C03BB6101
:1045E800BB69042B0AD0082B0FD0002B60D17A6846
:1045F8004FF41053C0F2F403136060E07A684FF48C
:104608009053C0F27A03136059E04FF46053C4F238
:1046180002035B6803F480034FEA9353FB604FF493
:104628006053C4F202035B6803F03F03BB60FB689E
:10463800002B14D04FF49053C0F27A03BA68B3FB3E
:10464800F2F24FF46053C4F20203596847F6C0739C
:104658000B404FEA931303FB02F3FB6113E04FF4A3
:104668001053C0F2F403BA68B3FBF2F24FF460538C
:10467800C4F20203596847F6C0730B404FEA93131C
:1046880003FB02F3FB614FF46053C4F202035B685F
:1046980003F440334FEA134303F101034FEA4303A2
:1046A8003B61FA693B69B2FBF3F27B681A6006E08A
:1046B8007A684FF41053C0F2F403136000BF4FF44C
:1046C8006053C4F202039B6803F0F003BB61BB694B
:1046D8004FEA1313BB6140F23403C2F20003BA6914
:1046E8009B181B78DBB27B617B681A687B6922FAAE
:1046F80003F27B685A604FF46053C4F202039B686C
:1047080003F4E053BB61BB694FEA9323BB6140F2FA
:104718003403C2F20003BA699B181B78DBB27B61D1
:104728007B685A687B6922FA03F27B689A604FF4C7
:104738006053C4F202039B6803F46043BB61BB6926
:104748004FEA5333BB6140F23403C2F20003BA6943
:104758009B181B78DBB27B617B685A687B6922FAFD
:1047680003F27B68DA6007F12407BD4680BC704716
:1047780080B483B000AF78600B46FB70FB78002BE9
:104788000CD04FF46053C4F202034FF46052C4F2E9
:104798000202116B7A680A431A630DE04FF4605302
:1047A800C4F202034FF46052C4F20202116B7A6839
:1047B8006FEA02020A401A6307F10C07BD4680BC83
:1047C800704700BF80B483B000AF78600B46FB70C1
:1047D800FB78002B0CD04FF46053C4F202034FF463
:1047E8006052C4F20202516B7A680A435A630DE0C0
:1047F8004FF46053C4F202034FF46052C4F2020251
:10480800516B7A686FEA02020A405A6307F10C0793
:10481800BD4680BC704700BF80B483B000AF7860ED
:104828000B46FB70FB78002B0CD04FF46053C4F29E
:1048380002034FF46052C4F20202116C7A680A4310
:104848001A640DE04FF46053C4F202034FF460524F
:10485800C4F20202116C7A686FEA02020A401A6412
:1048680007F10C07BD4680BC704700BF80B483B019
:1048780000AF78600B46FB70FB78002B0CD04FF430
:104888006053C4F202034FF46052C4F20202516C46
:104898007A680A435A640DE04FF46053C4F2020385
:1048A8004FF46052C4F20202516C7A686FEA020255
:1048B8000A405A6407F10C07BD4680BC704700BF28
:1048C80080B483B000AF78600B46FB70FB78002B98
:1048D8000CD04FF46053C4F202034FF46052C4F298
:1048E8000202116A7A680A431A620DE04FF46053B3
:1048F800C4F202034FF46052C4F20202116A7A68E9
:104908006FEA02020A401A6207F10C07BD4680BC32
:10491800704700BF90B484B000AF02460B46FA71EE
:10492800BB714FF00003FB60BB7903F003034FEA50
:1049380083034FF00F0202FA03F3FB604FF4605356
:10494800C4F20103BA794FEA9202D2B210464FF488
:104958006052C4F20102B9794FEA9101C9B201F17A
:10496800020152F82110FA686FEA0202114000F1C0
:10497800020243F822104FF46053C4F20103BA79DB
:104988004FEA9202D2B210464FF46052C4F20102CA
:10499800B9794FEA9101C9B201F1020152F8211027
:1049A800FC79BA7902F003024FEA820204FA02F2B1
:1049B800114300F1020243F8221007F11007BD4627
:1049C80090BC704780B483B000AF78600B467B80A2
:1049D8007B884FEAC3534FEAD3539AB27B689A80D5
:1049E80007F10C07BD4680BC704700BF80B483B098
:1049F80000AF78607B689B889BB24FEAC3534FEA4D
:104A0800D3539BB2184607F10C07BD4680BC7047CC
:104A180080B487B000AF786013460A467A807B700E
:104A28004FF000033B614FF00003FB604FF00003C1
:104A3800BB604FF000037B617B687B617B88DBB2E6
:104A48004FEA5313DBB23B617B8803F01F03FB6023
:104A5800FB684FF0010202FA03F3BB603B69012BCC
:104A680004D17B6903F10C037B610BE03B69022BEA
:104A780004D17B6903F110037B6103E07B6903F1D7
:104A880014037B617B78002B06D07B697A691168F7
:104A9800BA680A431A6007E07B697A691168BA68DC
:104AA8006FEA02020A401A6007F11C07BD4680BC83
:104AB800704700BF80B487B000AF78600B467B803A
:104AC8004FF00003FB604FF000037B614FF00003E1
:104AD800BB604FF00003FB747B88DBB24FEA5313D3
:104AE800DBB2BB607B8803F01F037B617B694FF0FF
:104AF800010202FA03F37B61BB68012B06D17B68D4
:104B08009B899BB27A6913407B610FE0BB68022BDB
:104B180006D17B681B8A9BB27A6913407B6105E0EA
:104B28007B689B8A9BB27A6913407B617B884FEADA
:104B380013239BB2FB60FB684FF0010202FA03F3F8
:104B4800FB607B681B889BB2FA681340FB607B693B
:104B5800002B06D0FB68002B03D04FF00103FB7439
:104B680002E04FF00003FB74FB7C184607F11C07BA
:104B7800BD4680BC704700BF80B485B000AF786088
:104B88000B467B804FF00003FB814FF00003BB8195
:104B98007B884FEA1323FB81FB894FF0010202FA5D
:104BA80003F3BB81BB896FEA03039AB27B681A805F
:104BB80007F11407BD4680BC704700BF80B584B0BC
:104BC80000AF78604FF001004FF00101FFF7D0FD12
:104BD8004FF4D853BB604FF003037B734FF00203CD
:104BE8003B734FF00003BB734FF00003FB7307F1F7
:104BF80008034FF00000C4F202001946FFF738F925
:104C08004FF00000C4F202004FF008014FF00A0212
:104C1800FFF708FA4FF00000C4F202004FF0090154
:104C28004FF00A02FFF7FEF94FF00000C4F202004D
:104C38004FF00B014FF00A02FFF7F4F94FF00000B4
:104C4800C4F202004FF00C014FF00A02FFF7EAF934
:104C58004FF48063BB604FF00103BB734FF0010357
:104C6800FB734FF003037B7307F108034FF0000059
:104C7800C4F202001946FFF7FBF84FF00000C4F237
:104C880002004FF00A014FF00A02FFF7CBF94FF488
:104C980080404FF00101FFF7E9FD4FF080004FF031
:104CA8000101FFF78FFD4FF080504FF00101FFF732
:104CB80007FE4FF000004FF00101FEF7C1FD4FF075
:104CC8000100FFF7C5F807F11007BD4680BD00BF1A
:104CD80080B584B000AF78604FF4C060FEF796FFEF
:104CE8004FF043033B734FF001037B734FF0030313
:104CF800BB734FF00103FB7307F10C031846FEF773
:104D080099FF07F11007BD4680BD00BF80B485B08C
:104D180000AF78604FF00003FB607A6813464FEAF3
:104D280003139B1A4FEAC3031A4644F62513C2F22B
:104D38009243A3FB0213D21A4FEA52029B184FEA7E
:104D48009303BB6000E000BFFB6803F10103FB6055
:104D5800FA68BB689A42F6D900BF07F11407BD4646
:104D680080BC704780B582B000AF78607B684FF434
:104D78007A7202FB03F31846FFF7C8FF07F108072A
:104D8800BD4680BD80B400AF4FF000031846BD4655
:104D980080BC704780B400AF4FF000031846BD4692
:104DA80080BC704780B485B000AFF860B9607A60A5
:104DB800FB68232B00F2948001A252F823F000BF75
:104DC800E94E0008E94E0008E94E0008E94E0008DF
:104DD800E94E0008E94E0008E94E0008E94E0008CF
:104DE800E94E0008E94E0008E94E0008E94E0008BF
:104DF800E94E0008E94E0008E94E0008E94E0008AF
:104E0800E94E0008E94E0008E94E0008E94E00089E
:104E1800E94E0008E94E0008E94E0008E94E00088E
:104E2800E94E0008E94E0008E94E0008E94E00087E
:104E3800E94E0008E94E0008E94E0008E94E00086E
:104E4800E94E0008594E0008E94E0008E94E0008EE
:104E580040F24403C2F200031B68DAB2BB681A705E
:104E6800BB6803F1010240F24403C2F200031B686D
:104E78004FEA1323DBB21370BB6803F1020240F25E
:104E88004403C2F200031B684FEA1343DBB21370FA
:104E9800BB6803F1030240F24403C2F200031B683B
:104EA8004FEA1363DBB21370BB6803F1040240F2EC
:104EB8004403C2F200031B791370BB6803F10502B7
:104EC80040F24403C2F200035B791370BB6803F13C
:104ED800060240F24403C2F200039B79137000E01B
:104EE80000BF4FF00003184607F11407BD4680BC09
:104EF800704700BF80B584B000AF78604FF0000302
:104F0800FB6003E0FB6803F10103FB607A68FB6860
:104F1800D3181B78002BF5D17868F96800F004F8ED
:104F280007F11007BD4680BD80B485B000AF78603A
:104F380039604FF00003FB602CE042F20033C2F20C
:104F480000031A687968FB68CB18197842F66C2355
:104F5800C2F20003995442F20033C2F200031B6804
:104F680003F1010242F20033C2F200031A60FB6847
:104F780003F10103FB6042F20033C2F200031B6835
:104F8800B3F5006F06D142F20033C2F200034FF0CE
:104F980000021A60FA683B689A42CED34FF00003C9
:104FA800184607F11407BD4680BC704780B485B029
:104FB80000AF786039604FF00003FB603AE042F6DA
:104FC800DC13C2F200031A687968FB68CB181978F9
:104FD80042F64813C2F20003995442F6DC13C2F2B7
:104FE80000031B6803F1010242F6DC13C2F200035E
:104FF8001A6042F6DC13C2F200031B68802B06D14C
:1050080042F6DC13C2F200034FF000021A6042F6C7
:10501800DC13C2F200031A6842F6C813C2F2000396
:105028001B689A4202D14FF0020309E0FB6803F1C2
:105038000103FB60FA683B689A42C0D34FF0000353
:10504800184607F11407BD4680BC704780B483B08A
:1050580000AF03463960FB713B684FF012021A80BB
:1050680040F27C03C2F20003184607F10C07BD4664
:1050780080BC704780B483B000AF03463960FB71D1
:105088003B684FF004021A8040F29003C2F200031A
:10509800184607F10C07BD4680BC704780B582B042
:1050A80000AF03463960FB71FB79002B0BD14BF63F
:1050B8003440C0F6000043F26C21C2F200013A68A5
:1050C80001F006FC0AE04BF65840C0F6000043F237
:1050D8006C21C2F200013A6801F0FAFB43F26C233A
:1050E800C2F20003184607F10807BD4680BD00BF9D
:1050F80080B582B000AF03463960FB714BF67C4047
:10510800C0F6000043F26C21C2F200013A6801F0D7
:10511800DFFB43F26C23C2F20003184607F10807CD
:10512800BD4680BD80B582B000AF03463960FB71D3
:10513800FB79002B0BD14BF69040C0F6000043F2F0
:105148006C21C2F200013A6801F0C2FB0AE04BF69A
:10515800A040C0F6000043F26C21C2F200013A6898
:1051680001F0B6FB43F26C23C2F20003184607F1C4
:105178000807BD4680BD00BF80B582B000AF0346BA
:105188003960FB71FB79002B0BD14BF6B040C0F6B0
:10519800000043F26C21C2F200013A6801F098FB6A
:1051A8000AE04BF6B040C0F6000043F26C21C2F2B0
:1051B80000013A6801F08CFB43F26C23C2F2000351
:1051C800184607F10807BD4680BD00BF80B582B00C
:1051D80000AF03463960FB71FB79002B0BD14BF60E
:1051E800BC40C0F6000043F26C21C2F200013A68EC
:1051F80001F06EFB0AE04BF6BC40C0F6000043F23B
:105208006C21C2F200013A6801F062FB43F26C23A0
:10521800C2F20003184607F10807BD4680BD00BF6B
:1052280080B483B000AF03463960FB7197F907304B
:10523800002B10DA4FF46D43CEF20003FA7902F036
:105248000F02A2F104013A68D2B24FEA0212D2B2B6
:105258005B181A760DE04FF46143CEF2000397F91C
:1052680007103A68D2B24FEA0212D2B25B1883F83A
:10527800002307F10C07BD4680BC704780B582B09B
:1052880000AF78607B6803F1FF326FF07F439A428A
:1052980002D94FF001031DE04EF21003CEF20003D5
:1052A8007A6802F1FF325A604FF0FF304FF00F0179
:1052B800FFF7B6FF4EF21003CEF200034FF00002E4
:1052C8009A604EF21003CEF200034FF007021A6004
:1052D8004FF00003184607F10807BD4680BD00BF20
:1052E80080B500AF40F20C03C2F200031A684AF618
:1052F800AB23CAF6AA23A3FB02134FEA13131846DB
:10530800FFF7BCFF0346002B00D0FEE780BD00BFBF
:1053180080B483B000AF0346FB71FB79002B03D048
:10532800012B03D000BF02E000BF00E000BF07F17F
:105338000C07BD4680BC704780B400AFBD4680BC3A
:10534800704700BF80B400AFBD4680BC704700BF47
:1053580080B400AFBD4680BC704700BF80B400AFCA
:10536800BD4680BC704700BF80B400AFBD4680BC5E
:10537800704700BF80B584B000AF78600B46FB7003
:105388007B68D3F8EC3503F139031B8878684FF054
:1053980081011A464FF0020302F034FE7B68D3F80D
:1053A800EC3503F140031B8878684FF001011A4679
:1053B8004FF0020302F026FE78684FF082014FF0AA
:1053C80008024FF0030302F01DFE40F27C03C2F214
:1053D8000003FB60FB6803F104034FF002021A703C
:1053E800FB6803F105034FF000021A7040F24C030A
:1053F800C2F200031B6898477B68D3F8EC3503F1C9
:1054080040031B8878684FF0010142F62422C2F25B
:10541800000202F08DFE4FF00003184607F1100756
:10542800BD4680BD80B582B000AF78600B46FB708A
:1054380078684FF0810102F03BFE78684FF0010177
:1054480002F036FE78684FF0820102F031FE40F239
:105458004C03C2F200035B6898474FF000031846FC
:1054680007F10807BD4680BD80B584B000AF7860FD
:1054780039603B681B7803F06003002B58D0202B61
:105488004FD13B68DB88002B3BD03B681B78DBB2F5
:105498005BB2002B1ADA40F24C03C2F200039B689D
:1054A8003A68527811463A68D288084642F664212A
:1054B800C2F2000198473B68DB88786842F66421AD
:1054C800C2F200011A4600F0A1FC27E03B685B78B5
:1054D8001A4640F2F403C2F200031A603B68DB8804
:1054E8001A4642F21033C2F200031A603B68DB88A6
:1054F800786842F66421C2F200011A4600F0C2FC44
:105508000CE040F24C03C2F200039B683A68527800
:1055180010464FF000014FF0000298474FF000038B
:1055280044E07868396801F0ABF94FF002033DE0D8
:105538003B685B780A2B19D00B2B21D0062B33D173
:105548003B685B884FEA13239BB2212B07D11A4B88
:10555800BB603B68DB883A2B28BF3A23FB81FB8979
:105568007868B9681A4600F051FC1DE0786842F284
:10557800FC21C2F200014FF0010200F047FC13E0E9
:105588003B685B88DBB2002B09D13B685B88DBB2E8
:105598001A4642F2FC23C2F200031A6003E078685C
:1055A800396801F06DF900BF4FF00003184607F1A4
:1055B8001007BD4680BD00BFC200002090B583B073
:1055C80000AF786040F2F403C2F200031B68FF2BBF
:1055D8001CD040F24C03C2F200039C6840F2F40372
:1055E800C2F200031A6842F21033C2F200031B68C9
:1055F800104642F66421C2F200011A46A04740F262
:10560800F403C2F200034FF0FF021A604FF00003E8
:10561800184607F10C07BD4690BD00BF80B584B0A1
:1056280000AF78600B46FB7042F20C33C2F2000305
:105638001B78012B7BD142F20833C2F200031B68AE
:10564800002B07D142F20C33C2F200034FF00002E4
:105658001A706CE07B68D3F8EC3503F139031B88CA
:105668001A4642F20833C2F200031B689A422FD24C
:1056780042F20433C2F200031B68FB817B68D3F853
:10568800EC35B3F83930BB817B68D3F8EC3503F1DE
:1056980039031B881A4642F20433C2F200031B681E
:1056A800D21842F20433C2F200031A6042F20833FD
:1056B800C2F200031A687B68D3F8EC3503F13903AA
:1056C8001B88D21A42F20833C2F200031A6022E0A1
:1056D80042F20433C2F200031B68FB8142F2083332
:1056E800C2F200031B68BB8142F20433C2F200031A
:1056F8001A6842F20833C2F200031B68D21842F259
:105708000433C2F200031A6042F20833C2F2000303
:105718004FF000021A60FA8942F66C23C2F20003C5
:10572800D218BB8978684FF0810102F047FD4FF02D
:105738000003184607F11007BD4680BD80B584B048
:1057480000AF78600B46FB70FA78796813464FEA29
:1057580083039B184FEAC303CB1803F562731B68D6
:10576800FB8140F24C03C2F200031B69FA8942F63E
:105778002420C2F20000114698477B68D3F8EC3524
:1057880003F140031B8878684FF0010142F6242298
:10579800C2F2000202F0CCFC4FF00003184607F1F9
:1057A8001007BD4680BD00BF80B582B000AF7860ED
:1057B80042F21433C2F200031B68052B14BF002207
:1057C8000122D2B203F1010142F21433C2F2000302
:1057D8001960002A09D042F21433C2F200034FF0D4
:1057E80000021A60786800F007F84FF000031846C6
:1057F80007F10807BD4680BD80B584B000AF78606A
:1058080042F20C33C2F200031B78012B00F0C08077
:1058180042F20433C2F200031B68B3F5006F06D1ED
:1058280042F20433C2F200034FF000021A6042F25F
:105838000433C2F200031A6842F20033C2F20003D2
:105848001B689A4207D142F20C33C2F200034FF0B0
:1058580000021A709CE042F20433C2F200031A6894
:1058680042F20033C2F200031B689A420CD942F29A
:105878000433C2F200031B68C3F5006242F2083326
:10588800C2F200031A600FE042F20033C2F20003D2
:105898001A6842F20433C2F200031B68D21A42F2B9
:1058A8000833C2F200031A607B68D3F8EC3503F1C1
:1058B80039031B881A4642F20833C2F200031B68F8
:1058C8009A422FD242F20433C2F200031B68FB81D2
:1058D8007B68D3F8EC35B3F83930BB817B68D3F8F3
:1058E800EC3503F139031B881A4642F20433C2F23D
:1058F80000031B68D21842F20433C2F200031A6094
:1059080042F20833C2F200031A687B68D3F8EC3518
:1059180003F139031B88D21A42F20833C2F200039A
:105928001A6022E042F20433C2F200031B68FB81D2
:1059380042F20833C2F200031B68BB8142F204330F
:10594800C2F200031A6842F20833C2F200031B686D
:10595800D21842F20433C2F200031A6042F208334A
:10596800C2F200034FF000021A6042F20C33C2F296
:1059780000034FF001021A70FA8942F66C23C2F252
:105988000003D218BB8978684FF0810102F016FC39
:1059980007F11007BD4680BD80B483B000AF034651
:1059A8003960FB713B684FF043021A8040F2B00344
:1059B800C2F20003184607F10C07BD4680BC7047C9
:1059C80080B584B000AFF8607A603B600B46FB722C
:1059D800F868FFF7F3F8F86800F01EF8FB683A6813
:1059E800C3F8E025FB68BA69C3F8E425FB687A6860
:1059F800C3F8E825FB7AF868194602F06DFAFB68E7
:105A0800D3F8E4351B689847F868FFF761F907F1A0
:105A18001007BD4680BD00BF80B483B000AF78607A
:105A28004FF00003184607F10C07BD4680BC7047CD
:105A380080B584B000AF786007F10803786819462C
:105A480000F0D4FE3B7A03F01F03012B0AD0022B8F
:105A58000FD0002B14D107F108037868194600F01D
:105A680089FA16E007F108037868194600F0D4FAB5
:105A78000FE007F108037868194600F003FB08E017
:105A88003B7A23F07F03DBB27868194602F0D8FB33
:105A980000BF4FF00003184607F11007BD4680BD50
:105AA80080B584B000AF78600B46FB70FB78002BA4
:105AB80045D17B6803F55C73FB607B6893F8113113
:105AC800032B4FD1FB68DA69FB689B689A4221D99E
